{
  "_format": "hh-sol-artifact-1",
  "contractName": "EncryptedVaultFactory",
  "sourceName": "contracts/factories/EncryptedVaultFactory.sol",
  "abi": [
    {
      "inputs": [
        {
          "internalType": "address",
          "name": "configAddress",
          "type": "address"
        }
      ],
      "stateMutability": "nonpayable",
      "type": "constructor"
    },
    {
      "inputs": [],
      "name": "SystemNotIdle",
      "type": "error"
    },
    {
      "inputs": [],
      "name": "ZeroAddress",
      "type": "error"
    },
    {
      "anonymous": false,
      "inputs": [
        {
          "indexed": true,
          "internalType": "address",
          "name": "vault",
          "type": "address"
        },
        {
          "indexed": true,
          "internalType": "address",
          "name": "vaultOwner",
          "type": "address"
        },
        {
          "indexed": true,
          "internalType": "address",
          "name": "curator",
          "type": "address"
        },
        {
          "indexed": false,
          "internalType": "enum EventsLib.VaultType",
          "name": "vaultType",
          "type": "uint8"
        }
      ],
      "name": "OrionVaultCreated",
      "type": "event"
    },
    {
      "inputs": [],
      "name": "config",
      "outputs": [
        {
          "internalType": "contract IOrionConfig",
          "name": "",
          "type": "address"
        }
      ],
      "stateMutability": "view",
      "type": "function"
    },
    {
      "inputs": [
        {
          "internalType": "address",
          "name": "curator",
          "type": "address"
        },
        {
          "internalType": "string",
          "name": "name",
          "type": "string"
        },
        {
          "internalType": "string",
          "name": "symbol",
          "type": "string"
        },
        {
          "internalType": "uint8",
          "name": "feeType",
          "type": "uint8"
        },
        {
          "internalType": "uint16",
          "name": "performanceFee",
          "type": "uint16"
        },
        {
          "internalType": "uint16",
          "name": "managementFee",
          "type": "uint16"
        }
      ],
      "name": "createVault",
      "outputs": [
        {
          "internalType": "address",
          "name": "vault",
          "type": "address"
        }
      ],
      "stateMutability": "nonpayable",
      "type": "function"
    }
  ],
  "bytecode": "0x6080604052348015600e575f5ffd5b50604051615bff380380615bff833981016040819052602b916074565b6001600160a01b03811660515760405163d92e233d60e01b815260040160405180910390fd5b5f80546001600160a01b0319166001600160a01b0392909216919091179055609f565b5f602082840312156083575f5ffd5b81516001600160a01b03811681146098575f5ffd5b9392505050565b615b53806100ac5f395ff3fe608060405234801561000f575f5ffd5b5060043610610034575f3560e01c8063341624941461003857806379502c5514610067575b5f5ffd5b61004b6100463660046102d5565b610079565b6040516001600160a01b03909116815260200160405180910390f35b5f5461004b906001600160a01b031681565b5f33806100995760405163d92e233d60e01b815260040160405180910390fd5b6001600160a01b038a166100c05760405163d92e233d60e01b815260040160405180910390fd5b5f5f9054906101000a90046001600160a01b03166001600160a01b031663edcf9c1f6040518163ffffffff1660e01b8152600401602060405180830381865afa15801561010f573d5f5f3e3d5ffd5b505050506040513d601f19601f820116820180604052508101906101339190610396565b610150576040516312aecd8160e01b815260040160405180910390fd5b5f818b5f5f9054906101000a90046001600160a01b03168c8c8c8c8c8c8c60405161017a9061026e565b61018d9a999897969594939291906103e4565b604051809103905ff0801580156101a6573d5f5f3e3d5ffd5b505f54604051631e832de160e21b81529194508492506001600160a01b031690637a0cb784906101dd908490600190600401610477565b5f604051808303815f87803b1580156101f4575f5ffd5b505af1158015610206573d5f5f3e3d5ffd5b505050508a6001600160a01b0316826001600160a01b0316846001600160a01b03167fe36cd15f95d58db8766da292a38b27881bfaf9bdb8c464d9855d4e56bc40e7bf60016040516102589190610494565b60405180910390a4505098975050505050505050565b615675806104a983390190565b5f5f83601f84011261028b575f5ffd5b5081356001600160401b038111156102a1575f5ffd5b6020830191508360208285010111156102b8575f5ffd5b9250929050565b803561ffff811681146102d0575f5ffd5b919050565b5f5f5f5f5f5f5f5f60c0898b0312156102ec575f5ffd5b88356001600160a01b0381168114610302575f5ffd5b975060208901356001600160401b0381111561031c575f5ffd5b6103288b828c0161027b565b90985096505060408901356001600160401b03811115610346575f5ffd5b6103528b828c0161027b565b909650945050606089013560ff8116811461036b575f5ffd5b925061037960808a016102bf565b915061038760a08a016102bf565b90509295985092959890939650565b5f602082840312156103a6575f5ffd5b815180151581146103b5575f5ffd5b9392505050565b81835281816020850137505f828201602090810191909152601f909101601f19169091010190565b6001600160a01b038b811682528a8116602083015289166040820152610100606082018190525f90610419908301898b6103bc565b828103608084015261042c81888a6103bc565b60ff9690961660a0840152505061ffff92831660c0820152911660e090910152979650505050505050565b6002811061047357634e487b7160e01b5f52602160045260245ffd5b9052565b6001600160a01b0383168152604081016103b56020830184610457565b602081016104a28284610457565b9291505056fe60c060405234801561000f575f5ffd5b5060405161567538038061567583398101604081905261002e91610b63565b8787878787878787856001600160a01b0316637158da7c6040518163ffffffff1660e01b8152600401602060405180830381865afa158015610072573d5f5f3e3d5ffd5b505050506040513d601f19601f820116820180604052508101906100969190610c32565b858561013b610136604080516080810182525f80825260208201819052918101829052606081019190915250604080516080810182527350157cffd6bbfa2dece204a89ec419c23ef5755d815273cd3ab3bd6bcc0c0bf3e27912a92043e817b1cf696020820152731364cbbf2cdf5032c47d8226a6f6fbd2afcdacac9181019190915273901f8942346f7ab3a01f6d7613119bca447bb030606082015290565b610623565b61015873a02cda4ca3a71d7c46997716f4283aa851c288126106dc565b60036101648382610cd1565b5060046101718282610cd1565b5050505f5f6101858361071960201b60201c565b9150915081610195576012610197565b805b60ff1660a05250506001600160a01b03908116608052600160055587166101d15760405163e6c4247b60e01b815260040160405180910390fd5b6001600160a01b0386166101f85760405163e6c4247b60e01b815260040160405180910390fd5b600680546001600160a01b03808b166001600160a01b031992831617909255600780548a841690831617905560088054928916929091168217905560408051630691d8b960e31b8152905163348ec5c8916004808201926020929091908290030181865afa15801561026c573d5f5f3e3d5ffd5b505050506040513d601f19601f820116820180604052508101906102909190610c32565b60095f6101000a8154816001600160a01b0302191690836001600160a01b03160217905550856001600160a01b0316633a0dad8e6040518163ffffffff1660e01b8152600401602060405180830381865afa1580156102f1573d5f5f3e3d5ffd5b505050506040513d601f19601f820116820180604052508101906103159190610c32565b600a5f6101000a8154816001600160a01b0302191690836001600160a01b03160217905550856001600160a01b031663d1717c7d6040518163ffffffff1660e01b8152600401602060405180830381865afa158015610376573d5f5f3e3d5ffd5b505050506040513d601f19601f8201168201806040525081019061039a9190610d8b565b600a60146101000a81548160ff021916908360ff1602179055505f600d819055505f6014819055505f6015819055505f866001600160a01b0316637158da7c6040518163ffffffff1660e01b8152600401602060405180830381865afa158015610406573d5f5f3e3d5ffd5b505050506040513d601f19601f8201168201806040525081019061042a9190610c32565b6001600160a01b031663313ce5676040518163ffffffff1660e01b8152600401602060405180830381865afa158015610465573d5f5f3e3d5ffd5b505050506040513d601f19601f820116820180604052508101906104899190610d8b565b9050601260ff821611156104b057604051631c03248960e11b815260040160405180910390fd5b600460ff851611156104d5576040516317dbc4cb60e21b815260040160405180910390fd5b610bb861ffff841611156104fc576040516317dbc4cb60e21b815260040160405180910390fd5b61012c61ffff83161115610523576040516317dbc4cb60e21b815260040160405180910390fd5b8360ff16600481111561053857610538610da4565b6017805460ff1916600183600481111561055457610554610da4565b02179055506017805461ffff84811663010000000264ffff00000019918716610100029190911664ffffffff0019909216919091171790556105986012600a610eaf565b6018556105a36107ef565b5050505050505050506105bb5f6108c460201b60201c565b601e556105c860016108dc565b601f55600a80546105ec916105e791600160a01b900460ff1690610eaf565b6108c4565b602055601e546105fb906108f7565b50601f54610608906108f7565b50602054610615906108f7565b505050505050505050610fe0565b80515f5160206156355f395f51905f5280546001600160a01b03199081166001600160a01b039384161790915560208301515f5160206156555f395f51905f528054831691841691909117905560408301517fed8d60e34876f751cc8b014c560745351147d9de11b9347c854e881b128ea6028054831691841691909117905560608301517fed8d60e34876f751cc8b014c560745351147d9de11b9347c854e881b128ea6038054909216921691909117905550565b50565b7f5ea69329017273582817d320489fbd94f775580e90c092699ca6f3d12fdf7d0080546001600160a01b0319166001600160a01b03831617905550565b60408051600481526024810182526020810180516001600160e01b031663313ce56760e01b17905290515f918291829182916001600160a01b0387169161075f91610ebd565b5f60405180830381855afa9150503d805f8114610797576040519150601f19603f3d011682016040523d82523d5f602084013e61079c565b606091505b50915091508180156107b057506020815110155b156107e3575f818060200190518101906107ca9190610ed3565b905060ff81116107e1576001969095509350505050565b505b505f9485945092505050565b60085460408051636c366a2760e11b815290515f926001600160a01b03169163d86cd44e91600480830192869291908290030181865afa158015610835573d5f5f3e3d5ffd5b505050506040513d5f823e601f3d908101601f1916820160405261085c9190810190610eea565b90505f5b81518110156108c0575f61089783838151811061087f5761087f610f9c565b6020026020010151600b61090660201b90919060201c565b9050806108b757604051630ea075bf60e21b815260040160405180910390fd5b50600101610860565b5050565b5f6108d663ffffffff83166004610921565b92915050565b5f6108d6826108eb575f6108ee565b60015b60ff165f610921565b5f61090282306109b8565b5090565b5f61091a836001600160a01b038416610a2e565b9392505050565b5f5160206156555f395f51905f5254604051639cd07acb60e01b81525f915f5160206156355f395f51905f52916001600160a01b0390911690639cd07acb906109709087908790600401610fb0565b6020604051808303815f875af115801561098c573d5f5f3e3d5ffd5b505050506040513d601f19601f820116820180604052508101906109b09190610ed3565b949350505050565b5f5f5160206156355f395f51905f528054604051635ca4b5b160e11b8152600481018690526001600160a01b03858116602483015292935091169063b9496b62906044015f604051808303815f87803b158015610a13575f5ffd5b505af1158015610a25573d5f5f3e3d5ffd5b50505050505050565b5f818152600183016020526040812054610a7357508154600181810184555f8481526020808220909301849055845484825282860190935260409020919091556108d6565b505f6108d6565b6001600160a01b03811681146106d9575f5ffd5b634e487b7160e01b5f52604160045260245ffd5b604051601f8201601f191681016001600160401b0381118282101715610aca57610aca610a8e565b604052919050565b5f82601f830112610ae1575f5ffd5b81516001600160401b03811115610afa57610afa610a8e565b610b0d601f8201601f1916602001610aa2565b818152846020838601011115610b21575f5ffd5b8160208501602083015e5f918101602001919091529392505050565b805160ff81168114610b4d575f5ffd5b919050565b805161ffff81168114610b4d575f5ffd5b5f5f5f5f5f5f5f5f610100898b031215610b7b575f5ffd5b8851610b8681610a7a565b60208a0151909850610b9781610a7a565b60408a0151909750610ba881610a7a565b60608a01519096506001600160401b03811115610bc3575f5ffd5b610bcf8b828c01610ad2565b60808b015190965090506001600160401b03811115610bec575f5ffd5b610bf88b828c01610ad2565b945050610c0760a08a01610b3d565b9250610c1560c08a01610b52565b9150610c2360e08a01610b52565b90509295985092959890939650565b5f60208284031215610c42575f5ffd5b815161091a81610a7a565b600181811c90821680610c6157607f821691505b602082108103610c7f57634e487b7160e01b5f52602260045260245ffd5b50919050565b601f821115610ccc57805f5260205f20601f840160051c81016020851015610caa5750805b601f840160051c820191505b81811015610cc9575f8155600101610cb6565b50505b505050565b81516001600160401b03811115610cea57610cea610a8e565b610cfe81610cf88454610c4d565b84610c85565b6020601f821160018114610d30575f8315610d195750848201515b5f19600385901b1c1916600184901b178455610cc9565b5f84815260208120601f198516915b82811015610d5f5787850151825560209485019460019092019101610d3f565b5084821015610d7c57868401515f19600387901b60f8161c191681555b50505050600190811b01905550565b5f60208284031215610d9b575f5ffd5b61091a82610b3d565b634e487b7160e01b5f52602160045260245ffd5b634e487b7160e01b5f52601160045260245ffd5b6001815b6001841115610e0757808504811115610deb57610deb610db8565b6001841615610df957908102905b60019390931c928002610dd0565b935093915050565b5f82610e1d575060016108d6565b81610e2957505f6108d6565b8160018114610e3f5760028114610e4957610e65565b60019150506108d6565b60ff841115610e5a57610e5a610db8565b50506001821b6108d6565b5060208310610133831016604e8410600b8410161715610e88575081810a6108d6565b610e945f198484610dcc565b805f1904821115610ea757610ea7610db8565b029392505050565b5f61091a60ff841683610e0f565b5f82518060208501845e5f920191825250919050565b5f60208284031215610ee3575f5ffd5b5051919050565b5f60208284031215610efa575f5ffd5b81516001600160401b03811115610f0f575f5ffd5b8201601f81018413610f1f575f5ffd5b80516001600160401b03811115610f3857610f38610a8e565b8060051b610f4860208201610aa2565b91825260208184018101929081019087841115610f63575f5ffd5b6020850194505b83851015610f915784519250610f7f83610a7a565b82825260209485019490910190610f6a565b979650505050505050565b634e487b7160e01b5f52603260045260245ffd5b8281526040810160548310610fd357634e487b7160e01b5f52602160045260245ffd5b8260208301529392505050565b60805160a051614637610ffe5f395f50505f610fc501526146375ff3fe608060405234801561000f575f5ffd5b50600436106102cc575f3560e01c806395d89b411161018157806395d89b41146104f657806397ee1144146104fe5780639908840c146105345780639adb29811461053d578063a68a526714610550578063a9059cbb14610563578063aa9d3a6014610576578063acdb3d511461057e578063b3d7f6b914610587578063b460af941461059a578063b6eba653146105a8578063ba0876521461059a578063bdca9165146105be578063c0b568e1146105c7578063c37fc8a8146105da578063c392e58c146105e2578063c63d75b614610447578063c6e6f592146105f5578063cce4705b14610608578063ce96cb771461061b578063d1699c261461062e578063d1717c7d14610636578063d3d034581461064a578063d853365f14610652578063d905777e1461065a578063dceb7e281461066d578063dd62ed3e1461067a578063e51a85f61461068d578063e66f53b7146106a0578063e9c30a1a146106b3578063ef8b30f7146105f5575f5ffd5b806301e1d114146102d057806303d44854146102e757806306fdde03146102fc57806307a2d13a14610311578063095ea7b3146103245780630a28a477146103475780630c6a62dd1461035a5780630d1e66671461036d5780630df571f71461038057806318160ddd1461039357806318c219491461039b5780631f52692b146103ae57806323b872dd146103ce5780632dae2967146103e1578063313ce567146103e957806333fdc592146103fe578063348ec5c81461040657806338d52e0f146104195780633a0dad8e146104215780633ab6d27c14610434578063402d267d146104475780634cdad5061461031157806358df83011461045b5780636e553f651461046e57806370a0823114610481578063745400c9146104945780637847ea53146104a757806379502c55146104c75780638f5c9465146104da57806394bf804d1461046e575b5f5ffd5b600d545b6040519081526020015b60405180910390f35b6102fa6102f5366004613b70565b6106c8565b005b610304610802565b6040516102de9190613bdc565b6102d461031f366004613bee565b610892565b610337610332366004613c20565b6108a3565b60405190151581526020016102de565b6102d4610355366004613bee565b6108ba565b6102fa610368366004613c48565b6108c6565b6102fa61037b366004613bee565b61093a565b6102fa61038e366004613c61565b610bb1565b6002546102d4565b6102fa6103a9366004613bee565b610c2c565b6006546103c1906001600160a01b031681565b6040516102de9190613c81565b6103376103dc366004613c95565b610d02565b6102fa610d27565b60125b60405160ff90911681526020016102de565b6102fa610d76565b6009546103c1906001600160a01b031681565b6103c1610fc3565b600a546103c1906001600160a01b031681565b6102fa610442366004613cec565b610fe7565b6102d4610455366004613c48565b505f1990565b6102fa610469366004613d41565b6111b4565b6102d461047c366004613d98565b6111dd565b6102d461048f366004613c48565b6111f7565b6102fa6104a2366004613bee565b611211565b6104b26301e1338081565b60405163ffffffff90911681526020016102de565b6008546103c1906001600160a01b031681565b6104e361271081565b60405161ffff90911681526020016102de565b6103046113f0565b6017546018546105249160ff81169161ffff610100830481169263010000009004169084565b6040516102de9493929190613dd6565b6104e361012c81565b6102fa61054b366004613e48565b6113ff565b6102d461055e366004613e8f565b6115a9565b610337610571366004613c20565b6115e9565b6102fa6115f6565b6102d460165481565b6102d4610595366004613bee565b611892565b6102d461047c366004613ebd565b6105b061189e565b6040516102de929190613f39565b6104e3610bb881565b6102fa6105d5366004613bee565b611a1f565b6015546102d4565b6102fa6105f0366004613f91565b611bd9565b6102d4610603366004613bee565b61206c565b6102fa610616366004613bee565b612077565b6102d4610629366004613c48565b61226b565b6014546102d4565b600a546103ec90600160a01b900460ff1681565b6105b061227e565b6103ec601281565b6102d4610668366004613c48565b6123e2565b6021546103379060ff1681565b6102d4610688366004614027565b6123ec565b6102d461069b366004613bee565b612416565b6007546103c1906001600160a01b031681565b6106bb61244f565b6040516102de919061404f565b6006546001600160a01b031633146106f357604051631a27eac360e11b815260040160405180910390fd5b6106fd600b612460565b5f5b818110156107fd575f83838381811061071a5761071a614061565b905060200201602081019061072f9190613c48565b600854604051633af32abf60e01b81529192506001600160a01b031690633af32abf90610760908490600401613c81565b602060405180830381865afa15801561077b573d5f5f3e3d5ffd5b505050506040513d601f19601f8201168201806040525081019061079f9190614075565b6107c7578060405163751dff9760e11b81526004016107be9190613c81565b60405180910390fd5b5f6107d3600b83612469565b9050806107f357604051630ea075bf60e21b815260040160405180910390fd5b50506001016106ff565b505050565b60606003805461081190614090565b80601f016020809104026020016040519081016040528092919081815260200182805461083d90614090565b80156108885780601f1061085f57610100808354040283529160200191610888565b820191905f5260205f20905b81548152906001019060200180831161086b57829003601f168201915b5050505050905090565b5f61089d825f61247d565b92915050565b5f336108b08185856124be565b5060019392505050565b5f61089d8260016124cb565b6006546001600160a01b031633146108f157604051631a27eac360e11b815260040160405180910390fd5b6001600160a01b0381166109185760405163e6c4247b60e01b815260040160405180910390fd5b600780546001600160a01b0319166001600160a01b0392909216919091179055565b6109426124fd565b60085f9054906101000a90046001600160a01b03166001600160a01b031663edcf9c1f6040518163ffffffff1660e01b8152600401602060405180830381865afa158015610992573d5f5f3e3d5ffd5b505050506040513d601f19601f820116820180604052508101906109b69190614075565b6109d3576040516312aecd8160e01b815260040160405180910390fd5b805f036109fc576109e2610fc3565b604051636b30633560e01b81526004016107be9190613c81565b5f610a05610fc3565b6001600160a01b03166370a08231336040518263ffffffff1660e01b8152600401610a309190613c81565b602060405180830381865afa158015610a4b573d5f5f3e3d5ffd5b505050506040513d601f19601f82011682018060405250810190610a6f91906140c8565b905080821115610a9857338183604051632e2a182f60e11b81526004016107be939291906140df565b5f610aa1610fc3565b600a546040516323b872dd60e01b81526001600160a01b03928316926323b872dd92610ad7923392909116908890600401614100565b6020604051808303815f875af1158015610af3573d5f5f3e3d5ffd5b505050506040513d601f19601f82011682018060405250810190610b179190614075565b905080610b37576040516312171d8360e31b815260040160405180910390fd5b5f610b43600e33612527565b9150610b5e905033610b558684614138565b600e919061254d565b508360145f828254610b709190614138565b9091555050604051849033907f08d79f77ab5f78e7e780abb1f7ac9e9923340d5bae78f6e83e7999905b248ea2905f90a3505050610bae6001600555565b50565b600a546001600160a01b03163314610bdc57604051631a27eac360e11b815260040160405180910390fd5b8015610c28578060165f828254610bf39190614138565b9091555050601654604051829084907f8b8789cf9157fe7b016901e4ed3a5d0971caa8b7c031da0b25638ccf65841b2a905f90a45b5050565b6006546001600160a01b03163314610c5757604051631a27eac360e11b815260040160405180910390fd5b805f03610c66576109e2610fc3565b601654811115610c9057601654604051632e2a182f60e11b81526107be91309184906004016140df565b8060165f828254610ca1919061414b565b9091555050600a5460405163741fca4b60e01b8152600481018390526001600160a01b039091169063741fca4b906024015f604051808303815f87803b158015610ce9575f5ffd5b505af1158015610cfb573d5f5f3e3d5ffd5b5050505050565b5f33610d0f858285612562565b610d1a8585856125ad565b60019150505b9392505050565b600a546001600160a01b03163314610d5257604051631a27eac360e11b815260040160405180910390fd5b5f610d6460125b61031f90600a614241565b601854909150811115610bae57601855565b600a546001600160a01b03163314610da157604051631a27eac360e11b815260040160405180910390fd5b610da96124fd565b5f610db4600e61260a565b90505f8163ffffffff166001600160401b03811115610dd557610dd561424f565b604051908082528060200260200182016040528015610dfe578160200160208202803683370190505b5090505f8263ffffffff166001600160401b03811115610e2057610e2061424f565b604051908082528060200260200182016040528015610e49578160200160208202803683370190505b5090505f5b8363ffffffff168163ffffffff161015610ee3575f80610e78600e63ffffffff8086169061261416565b9150915081858463ffffffff1681518110610e9557610e95614061565b60200260200101906001600160a01b031690816001600160a01b03168152505080848463ffffffff1681518110610ece57610ece614061565b60209081029190910101525050600101610e4e565b505f60148190555b8363ffffffff168163ffffffff161015610fb3575f838263ffffffff1681518110610f1857610f18614061565b602002602001015190505f838363ffffffff1681518110610f3b57610f3b614061565b60200260200101519050610f5982600e61262290919063ffffffff16565b505f610f648261206c565b9050610f708382612636565b60405182906001600160a01b038516907f85a190caa61692b36b63a55e069330d18ab9af179fed7a25c16a4262bc63b7d2905f90a3505050806001019050610eeb565b50505050610fc16001600555565b565b7f000000000000000000000000000000000000000000000000000000000000000090565b6006546001600160a01b0316331461101257604051631a27eac360e11b815260040160405180910390fd5b60085f9054906101000a90046001600160a01b03166001600160a01b031663edcf9c1f6040518163ffffffff1660e01b8152600401602060405180830381865afa158015611062573d5f5f3e3d5ffd5b505050506040513d601f19601f820116820180604052508101906110869190614075565b6110a3576040516312aecd8160e01b815260040160405180910390fd5b600460ff841611156110c8576040516317dbc4cb60e21b815260040160405180910390fd5b610bb861ffff831611156110ef576040516317dbc4cb60e21b815260040160405180910390fd5b61012c61ffff82161115611116576040516317dbc4cb60e21b815260040160405180910390fd5b8260ff16600481111561112b5761112b613dc2565b6017805460ff1916600183600481111561114757611147613dc2565b02179055506017805464ffffffff00191661010061ffff85811691820264ffff00000019169290921763010000009285169283021790925560405190919060ff8616907fd24f39e523bfa412fa391702710dc62e1c82d87a8e83228a37c42be1b4870f45905f90a4505050565b6111c7846111c28385614293565b61266a565b50506021805460ff191691151591909117905550565b5f60405163125ad87760e31b815260040160405180910390fd5b6001600160a01b03165f9081526020819052604090205490565b60085f9054906101000a90046001600160a01b03166001600160a01b031663edcf9c1f6040518163ffffffff1660e01b8152600401602060405180830381865afa158015611261573d5f5f3e3d5ffd5b505050506040513d601f19601f820116820180604052508101906112859190614075565b6112a2576040516312aecd8160e01b815260040160405180910390fd5b805f036112c45730604051636b30633560e01b81526004016107be9190613c81565b5f6112ce336111f7565b9050808211156112f757338183604051632e2a182f60e11b81526004016107be939291906140df565b6040516323b872dd60e01b81525f9030906323b872dd9061132090339084908890600401614100565b6020604051808303815f875af115801561133c573d5f5f3e3d5ffd5b505050506040513d601f19601f820116820180604052508101906113609190614075565b905080611380576040516312171d8360e31b815260040160405180910390fd5b5f61138c601133612527565b91506113a790503361139e8684614138565b6011919061254d565b508360155f8282546113b99190614138565b9091555050604051849033907ff7774b688d56120b783560a913ee60792a73dfd511812b7be5eccf10d08c6689905f90a350505050565b60606004805461081190614090565b600a546001600160a01b0316331461142a57604051631a27eac360e11b815260040160405180910390fd5b601a545f5b8161ffff168161ffff16101561148857601e5460195f601a8461ffff168154811061145c5761145c614061565b5f9182526020808320909101546001600160a01b0316835282019290925260400190205560010161142f565b50611494601a5f613ac0565b5f5b8161ffff168161ffff1610156115735784848261ffff168181106114bc576114bc614061565b9050604002016020013560195f87878561ffff168181106114df576114df614061565b6114f59260206040909202019081019150613c48565b6001600160a01b0316815260208101919091526040015f2055601a858561ffff841681811061152657611526614061565b61153c9260206040909202019081019150613c48565b8154600180820184555f93845260209093200180546001600160a01b0319166001600160a01b039290921691909117905501611496565b50600d82905560405182907f5e1ff954b5e5257e9ee5d4cb07059e8f5e69b1aaaf9911e5d8d90a6894de9c21905f90a250505050565b5f6115e16115b8846001614138565b6115c06126d1565b6115cb90600a614241565b6002546115d89190614138565b8691908561274d565b949350505050565b5f336108b08185856125ad565b600a546001600160a01b0316331461162157604051631a27eac360e11b815260040160405180910390fd5b6116296124fd565b5f611634601161260a565b90505f8163ffffffff166001600160401b038111156116555761165561424f565b60405190808252806020026020018201604052801561167e578160200160208202803683370190505b5090505f8263ffffffff166001600160401b038111156116a0576116a061424f565b6040519080825280602002602001820160405280156116c9578160200160208202803683370190505b5090505f5b8363ffffffff168163ffffffff161015611763575f806116f8601163ffffffff8086169061261416565b9150915081858463ffffffff168151811061171557611715614061565b60200260200101906001600160a01b031690816001600160a01b03168152505080848463ffffffff168151811061174e5761174e614061565b602090810291909101015250506001016116ce565b505f60158190555b8363ffffffff168163ffffffff161015610fb3575f838263ffffffff168151811061179857611798614061565b602002602001015190505f838363ffffffff16815181106117bb576117bb614061565b602002602001015190506117d982601161262290919063ffffffff16565b505f6117e482610892565b90506117f0308361278f565b600a54604051632eea26bd60e11b81526001600160a01b0390911690635dd44d7a906118229086908590600401614375565b5f604051808303815f87803b158015611839575f5ffd5b505af115801561184b573d5f5f3e3d5ffd5b50506040518492506001600160a01b03861691507f44b2ff9ffcefe2052a8afdbed44a04bf3db4592ae90c6b96c818bd28573e41e8905f90a350505080600101905061176b565b5f61089d82600161247d565b601c54606090819061ffff81166001600160401b038111156118c2576118c261424f565b6040519080825280602002602001820160405280156118eb578160200160208202803683370190505b5092508061ffff166001600160401b0381111561190a5761190a61424f565b604051908082528060200260200182016040528015611933578160200160208202803683370190505b5091505f5b8161ffff168161ffff161015611a1957601c8161ffff168154811061195f5761195f614061565b905f5260205f20015f9054906101000a90046001600160a01b0316848261ffff168151811061199057611990614061565b60200260200101906001600160a01b031690816001600160a01b031681525050601b5f601c8361ffff16815481106119ca576119ca614061565b5f9182526020808320909101546001600160a01b031683528201929092526040019020548351849061ffff8416908110611a0657611a06614061565b6020908102919091010152600101611938565b50509091565b611a276124fd565b60085f9054906101000a90046001600160a01b03166001600160a01b031663edcf9c1f6040518163ffffffff1660e01b8152600401602060405180830381865afa158015611a77573d5f5f3e3d5ffd5b505050506040513d601f19601f82011682018060405250810190611a9b9190614075565b611ab8576040516312aecd8160e01b815260040160405180910390fd5b805f03611ac7576109e2610fc3565b5f611ad3600e33612527565b91505081811015611af7576040516332194fd360e21b815260040160405180910390fd5b600a546040516351edffb160e01b81526001600160a01b03909116906351edffb190611b299033908690600401614375565b5f604051808303815f87803b158015611b40575f5ffd5b505af1158015611b52573d5f5f3e3d5ffd5b505050505f8282611b63919061414b565b9050805f03611b7d57611b77600e33612622565b50611b8b565b611b89600e338361254d565b505b8260145f828254611b9c919061414b565b9091555050604051839033907f96a9a6886cdf3047a125454218a23d3961fd3a78643123b248a9d106d0ac94fd905f90a35050610bae6001600555565b6007546001600160a01b03163314611c0457604051631a27eac360e11b815260040160405180910390fd5b611c0c6124fd565b5f839003611c2d57604051631121aa8d60e01b815260040160405180910390fd5b6021805460ff19169055601e5483905f61ffff83166001600160401b03811115611c5957611c5961424f565b604051908082528060200260200182016040528015611c82578160200160208202803683370190505b5090505f8361ffff166001600160401b03811115611ca257611ca261424f565b604051908082528060200260200182016040528015611ccb578160200160208202803683370190505b50601f549091505f61ffff86166001600160401b03811115611cef57611cef61424f565b604051908082528060200260200182016040528015611d18578160200160208202803683370190505b5090505f5b8661ffff168161ffff161015611eee575f8b8b8361ffff16818110611d4457611d44614061565b611d5a9260206040909202019081019150613c48565b905080838361ffff1681518110611d7357611d73614061565b60200260200101906001600160a01b031690816001600160a01b0316815250505f611df28d8d8561ffff16818110611dad57611dad614061565b905060400201602001358c8c8080601f0160208091040260200160405190810160405280939291908181526020018383808284375f920191909152506127c392505050565b9050611dfd816127d0565b505f611e0b82601e546127df565b9050611e17868261280d565b6001600160a01b0384165f908152601d602052604090205490965060ff1615611e5557826040516346bdabe160e01b81526004016107be9190613c81565b6001600160a01b0383165f908152601d60205260409020805460ff1916600117905587518390899061ffff8716908110611e9157611e91614061565b60200260200101906001600160a01b031690816001600160a01b03168152505081878561ffff1681518110611ec857611ec8614061565b602002602001018181525050611ede898361283b565b9850505050806001019050611d1d565b50611efa818684612869565b5f5b601c5461ffff9081169082161015611f5757601e54601b5f601c8461ffff1681548110611f2b57611f2b614061565b5f9182526020808320909101546001600160a01b03168352820192909252604001902055600101611efc565b50611f63601c5f613ac0565b5f5b8661ffff168161ffff16101561202b575f858261ffff1681518110611f8c57611f8c614061565b60200260200101519050848261ffff1681518110611fac57611fac614061565b6020908102919091018101516001600160a01b039092165f818152601b8352604080822094909455601c805460018181019092557f0e4562a10381dec21b205ed72637e6b1b523bdd0e4d4d50af5cd23dd4500a2110180546001600160a01b03191684179055918152601d909252919020805460ff1916905501611f65565b5060405133907f2d47a742b8d7df7c1fc5a9a631b206b364e6cb2722490759f63bb3ab14b132e0905f90a25050505050506120666001600555565b50505050565b5f61089d825f6124cb565b61207f6124fd565b60085f9054906101000a90046001600160a01b03166001600160a01b031663edcf9c1f6040518163ffffffff1660e01b8152600401602060405180830381865afa1580156120cf573d5f5f3e3d5ffd5b505050506040513d601f19601f820116820180604052508101906120f39190614075565b612110576040516312aecd8160e01b815260040160405180910390fd5b805f036121325730604051636b30633560e01b81526004016107be9190613c81565b5f61213e601133612527565b91505081811015612162576040516312ea1f4960e11b815260040160405180910390fd5b5f61216d838361414b565b9050805f0361218757612181601133612622565b50612195565b6121936011338361254d565b505b8260155f8282546121a6919061414b565b909155505060405163a9059cbb60e01b81525f90309063a9059cbb906121d29033908890600401614375565b6020604051808303815f875af11580156121ee573d5f5f3e3d5ffd5b505050506040513d601f19601f820116820180604052508101906122129190614075565b905080612232576040516312171d8360e31b815260040160405180910390fd5b604051849033907f9cf37535785001dcc9767688232fcbc8698b3002d1207b50bc2afec3ff8934dc905f90a3505050610bae6001600555565b5f61089d612278836111f7565b5f61247d565b601a54606090819061ffff81166001600160401b038111156122a2576122a261424f565b6040519080825280602002602001820160405280156122cb578160200160208202803683370190505b5092508061ffff166001600160401b038111156122ea576122ea61424f565b604051908082528060200260200182016040528015612313578160200160208202803683370190505b5091505f5b8161ffff168161ffff161015611a19575f601a8261ffff168154811061234057612340614061565b905f5260205f20015f9054906101000a90046001600160a01b0316905080858361ffff168151811061237457612374614061565b60200260200101906001600160a01b031690816001600160a01b03168152505060195f826001600160a01b03166001600160a01b031681526020019081526020015f2054848361ffff16815181106123ce576123ce614061565b602090810291909101015250600101612318565b5f61089d826111f7565b6001600160a01b039182165f90815260016020908152604080832093909416825291909152205490565b5f5f612421836128ec565b90505f61242e828561414b565b90505f61243a826129b6565b90506124468184614138565b95945050505050565b606061245b600b612a73565b905090565b610bae81612a7f565b5f610d20836001600160a01b038416612ad8565b5f610d2061248a600d5490565b612495906001614138565b61249d6126d1565b6124a890600a614241565b6002546124b59190614138565b8591908561274d565b6107fd8383836001612b1f565b5f610d206124d76126d1565b6124e290600a614241565b6002546124ef9190614138565b600d546124b5906001614138565b60026005540361252057604051633ee5aeb560e01b815260040160405180910390fd5b6002600555565b5f80808061253e866001600160a01b038716612bf1565b909450925050505b9250929050565b5f6115e1846001600160a01b03851684612c29565b5f61256d84846123ec565b90505f19811015612066578181101561259f57828183604051637dc7a0d960e11b81526004016107be939291906140df565b61206684848484035f612b1f565b6001600160a01b0383166125d6575f604051634b637e8f60e11b81526004016107be9190613c81565b6001600160a01b0382166125ff575f60405163ec442f0560e01b81526004016107be9190613c81565b6107fd838383612c45565b5f61089d82612d58565b5f80808061253e8686612d62565b5f610d20836001600160a01b038416612d8b565b6001600160a01b03821661265f575f60405163ec442f0560e01b81526004016107be9190613c81565b610c285f8383612c45565b5f61267483612da7565b90505f6126818284612e43565b9050806126a15760405163cf6c44e960e01b815260040160405180910390fd5b60405184907f1af0453083661051f6e56e5c070792320652e612154bf9af8637bb1e7655b99d905f90a250505050565b5f5f6126db610fc3565b6001600160a01b031663313ce5676040518163ffffffff1660e01b8152600401602060405180830381865afa158015612716573d5f5f3e3d5ffd5b505050506040513d601f19601f8201168201806040525081019061273a919061438e565b90506127478160126143a9565b91505090565b5f61277a61275a83612f2a565b801561277557505f8480612770576127706143c2565b868809115b151590565b612785868686612f56565b6124469190614138565b6001600160a01b0382166127b8575f604051634b637e8f60e11b81526004016107be9190613c81565b610c28825f83612c45565b5f610d2083836004613006565b5f6127db82306130f0565b5090565b5f826127f1576127ee5f61315d565b92505b81612802576127ff5f61315d565b91505b610d2083835f61316f565b5f8261281f5761281c5f613205565b92505b816128305761282d5f613205565b91505b610d2083835f613220565b5f8261284d5761284a5f61315d565b92505b8161285e5761285b5f61315d565b91505b610d2083835f613276565b612872836132cc565b5f6128888261288385602054613344565b61280d565b9050612893816127d0565b506040805160018082528183019092525f916020808301908036833701905050905081815f815181106128c8576128c8614061565b60209081029190910101526128e4816358df830160e01b613372565b505050505050565b6017545f906301000000900461ffff16810361290957505f919050565b6017545f90612926906301000000900461ffff1684612710612f56565b9050610d2060095f9054906101000a90046001600160a01b03166001600160a01b0316634ff0876a6040518163ffffffff1660e01b8152600401602060405180830381865afa15801561297b573d5f5f3e3d5ffd5b505050506040513d601f19601f8201168201806040525081019061299f91906143d6565b829063ffffffff908116906301e1338090612f5616565b6017545f90610100900461ffff1681036129d157505f919050565b5f612a156129e0846001614138565b6129e86126d1565b6129f390600a614241565b600254612a009190614138565b5f612a0d6012600a614241565b92919061274d565b6017549091505f908190612a2b9060ff1661337e565b9150915081831015612a4157505f949350505050565b6017545f90612a5a90610100900461ffff168584612f56565b9050612a698187612710612f56565b9695505050505050565b60605f610d2083613468565b5f612a88825490565b90505f5b81811015612ad157826001015f845f018381548110612aad57612aad614061565b905f5260205f20015481526020019081526020015f205f9055806001019050612a8c565b50505f9055565b5f612ae383836134c1565b612b1857508154600181810184555f84815260208082209093018490558454848252828601909352604090209190915561089d565b505f61089d565b6001600160a01b038416612b48575f60405163e602df0560e01b81526004016107be9190613c81565b6001600160a01b038316612b71575f604051634a1406b160e11b81526004016107be9190613c81565b6001600160a01b038085165f908152600160209081526040808320938716835292905220829055801561206657826001600160a01b0316846001600160a01b03167f8c5be1e5ebec7d5bd14f71427d1e84f3dd0314c0f7b2291e5b200ac8c7c3b92584604051612be391815260200190565b60405180910390a350505050565b5f818152600283016020526040812054819080612c1e57612c1285856134d8565b92505f91506125469050565b600192509050612546565b5f82815260028401602052604081208290556115e184846134e3565b6001600160a01b038316612c6f578060025f828254612c649190614138565b90915550612ccc9050565b6001600160a01b0383165f9081526020819052604090205481811015612cae5783818360405163391434e360e21b81526004016107be939291906140df565b6001600160a01b0384165f9081526020819052604090209082900390555b6001600160a01b038216612ce857600280548290039055612d06565b6001600160a01b0382165f9081526020819052604090208054820190555b816001600160a01b0316836001600160a01b03167fddf252ad1be2c89b69c2b068fc378daa952ba7f163c4a11628f55a4df523b3ef83604051612d4b91815260200190565b60405180910390a3505050565b5f61089d826134ee565b5f8080612d6f85856134f7565b5f81815260029690960160205260409095205494959350505050565b5f8181526002830160205260408120819055610d208383613502565b60605f612db261350d565b5f84815260028201602052604081205491925003612de35760405163d66ca67560e01b815260040160405180910390fd5b5f83815260028201602090815260409182902080548351818402810184019094528084529091830182828015612e3657602002820191905f5260205f20905b815481526020019060010190808311612e22575b5050505050915050919050565b5f602481612e5085613531565b90505f816001600160401b03811115612e6b57612e6b61424f565b6040519080825280601f01601f191660200182016040528015612e95576020820181803683370190505b509050818360208301375f612ea86135de565b6002810154604051632c027b1360e21b81529192506001600160a01b03169063b009ec4c90612edf908a9086908b90600401614429565b6020604051808303815f875af1158015612efb573d5f5f3e3d5ffd5b505050506040513d601f19601f82011682018060405250810190612f1f9190614075565b979650505050505050565b5f6002826003811115612f3f57612f3f613dc2565b612f4991906144b3565b60ff166001149050919050565b5f5f5f612f638686613602565b91509150815f03612f8757838181612f7d57612f7d6143c2565b0492505050610d20565b818411612f9e57612f9e600385150260111861361e565b5f848688095f868103871696879004966002600389028118808a02820302808a02820302808a02820302808a02820302808a02820302808a02909103029181900381900460010185841190960395909502919093039390930492909217029150509392505050565b5f5f6130106135de565b600181015460405163196d0b9b60e01b81529192506001600160a01b03169063196d0b9b906130499088903390899089906004016144f4565b6020604051808303815f875af1158015613065573d5f5f3e3d5ffd5b505050506040513d601f19601f8201168201806040525081019061308991906140c8565b8154604051630f8e573b60e21b81529193506001600160a01b031690633e395cec906130bb908590339060040161452c565b5f604051808303815f87803b1580156130d2575f5ffd5b505af11580156130e4573d5f5f3e3d5ffd5b50505050509392505050565b5f6130f96135de565b8054604051635ca4b5b160e11b81529192506001600160a01b03169063b9496b629061312b908690869060040161452c565b5f604051808303815f87803b158015613142575f5ffd5b505af1158015613154573d5f5f3e3d5ffd5b50505050505050565b5f61089d8263ffffffff16600461362f565b5f5f82156131825750600160f81b613185565b505f5b5f61318e6135de565b60018101546040516385362ee760e01b81529192506001600160a01b0316906385362ee7906131c590899089908790600401614543565b6020604051808303815f875af11580156131e1573d5f5f3e3d5ffd5b505050506040513d601f19601f82011682018060405250810190612a6991906140c8565b5f61089d82613214575f613217565b60015b60ff165f61362f565b5f5f82156132335750600160f81b613236565b505f5b5f61323f6135de565b600181015460405163d99882d560e01b81529192506001600160a01b03169063d99882d5906131c590899089908790600401614543565b5f5f82156132895750600160f81b61328c565b505f5b5f6132956135de565b600181015460405163022f65e760e31b81529192506001600160a01b03169063117b2f38906131c590899089908790600401614543565b5f5b8151811015610c28576133048282815181106132ec576132ec614061565b6020026020010151600b6136ae90919063ffffffff16565b61333c5781818151811061331a5761331a614061565b602002602001015160405163751dff9760e11b81526004016107be9190613c81565b6001016132ce565b5f82613356576133535f61315d565b92505b81613367576133645f61315d565b91505b610d2083835f6136c2565b5f610d2083835f613718565b5f808061338b6012610d59565b90505f8460048111156133a0576133a0613dc2565b036133b057809250829150613462565b60038460048111156133c4576133c4613dc2565b036133d6576018549250829150613462565b60018460048111156133ea576133ea613dc2565b03613402576133f88161381d565b9250809150613462565b600284600481111561341657613416613dc2565b0361342e576134248161381d565b9250829150613462565b600484600481111561344257613442613dc2565b036134625760185461345c906134578361381d565b613943565b92508291505b50915091565b6060815f018054806020026020016040519081016040528092919081815260200182805480156134b557602002820191905f5260205f20905b8154815260200190600101908083116134a1575b50505050509050919050565b5f9081526001919091016020526040902054151590565b5f610d208383613952565b5f610d208383612ad8565b5f61089d825490565b5f610d20838361395d565b5f610d208383613983565b7f5ea69329017273582817d320489fbd94f775580e90c092699ca6f3d12fdf7d0090565b80515f9081805b828110156135d2575f85828151811061355357613553614061565b6020026020010151601e6020811061356d5761356d614061565b1a605381111561357f5761357f613dc2565b9050600981605381111561359557613595613dc2565b60ff1610156135b0576135a9602084614138565b92506135c9565b60405163ce54a8d160e01b815260040160405180910390fd5b50600101613538565b506115e1602082614138565b7fed8d60e34876f751cc8b014c560745351147d9de11b9347c854e881b128ea60090565b5f805f1983850993909202808410938190039390930393915050565b634e487b715f52806020526024601cfd5b5f5f6136396135de565b6001810154604051639cd07acb60e01b81529192506001600160a01b031690639cd07acb9061366e9087908790600401614563565b6020604051808303815f875af115801561368a573d5f5f3e3d5ffd5b505050506040513d601f19601f820116820180604052508101906115e191906140c8565b5f610d20836001600160a01b0384166134c1565b5f5f82156136d55750600160f81b6136d8565b505f5b5f6136e16135de565b600181015460405163f77f3f1d60e01b81529192506001600160a01b03169063f77f3f1d906131c590899089908790600401614543565b5f5f61372261350d565b9050806001015491505f6137346135de565b8054604051637d6e912360e11b81529192506001600160a01b03169063fadd224690613764908990600401614577565b5f604051808303815f87803b15801561377b575f5ffd5b505af115801561378d573d5f5f3e3d5ffd5b50508354604051633263b83b60e01b81526001600160a01b039091169250633263b83b915086906137c69087908b908b90600401614589565b5f604051808303818588803b1580156137dd575f5ffd5b505af11580156137ef573d5f5f3e3d5ffd5b50505050506137fe8387613a66565b600182018054905f61380f836145ba565b919050555050509392505050565b5f5f60085f9054906101000a90046001600160a01b03166001600160a01b031663f3cc69936040518163ffffffff1660e01b8152600401602060405180830381865afa15801561386f573d5f5f3e3d5ffd5b505050506040513d601f19601f8201168201806040525081019061389391906145d2565b61ffff1690505f61392860095f9054906101000a90046001600160a01b03166001600160a01b0316634ff0876a6040518163ffffffff1660e01b8152600401602060405180830381865afa1580156138ed573d5f5f3e3d5ffd5b505050506040513d601f19601f8201168201806040525081019061391191906143d6565b839063ffffffff908116906301e1338090612f5616565b90506115e161393982612710614138565b8590612710612f56565b5f828218828411028218610d20565b5f610d2083836134c1565b5f825f01828154811061397257613972614061565b905f5260205f200154905092915050565b5f8181526001830160205260408120548015613a5d575f6139a560018361414b565b85549091505f906139b89060019061414b565b9050808214613a17575f865f0182815481106139d6576139d6614061565b905f5260205f200154905080875f0184815481106139f6576139f6614061565b5f918252602080832090910192909255918252600188019052604090208390555b8554869080613a2857613a286145ed565b600190038181905f5260205f20015f90559055856001015f8681526020019081526020015f205f90556001935050505061089d565b5f91505061089d565b5f613a6f61350d565b5f84815260028201602052604090205490915015613aa057604051633f06d22b60e01b815260040160405180910390fd5b5f8381526002820160209081526040909120835161206692850190613adb565b5080545f8255905f5260205f2090810190610bae9190613b1c565b828054828255905f5260205f20908101928215613b14579160200282015b82811115613b14578251825591602001919060010190613af9565b506127db9291505b5b808211156127db575f8155600101613b1d565b5f5f83601f840112613b40575f5ffd5b5081356001600160401b03811115613b56575f5ffd5b6020830191508360208260051b8501011115612546575f5ffd5b5f5f60208385031215613b81575f5ffd5b82356001600160401b03811115613b96575f5ffd5b613ba285828601613b30565b90969095509350505050565b5f81518084528060208401602086015e5f602082860101526020601f19601f83011685010191505092915050565b602081525f610d206020830184613bae565b5f60208284031215613bfe575f5ffd5b5035919050565b80356001600160a01b0381168114613c1b575f5ffd5b919050565b5f5f60408385031215613c31575f5ffd5b613c3a83613c05565b946020939093013593505050565b5f60208284031215613c58575f5ffd5b610d2082613c05565b5f5f60408385031215613c72575f5ffd5b50508035926020909101359150565b6001600160a01b0391909116815260200190565b5f5f5f60608486031215613ca7575f5ffd5b613cb084613c05565b9250613cbe60208501613c05565b929592945050506040919091013590565b60ff81168114610bae575f5ffd5b61ffff81168114610bae575f5ffd5b5f5f5f60608486031215613cfe575f5ffd5b8335613d0981613ccf565b92506020840135613d1981613cdd565b91506040840135613d2981613cdd565b809150509250925092565b8015158114610bae575f5ffd5b5f5f5f5f60608587031215613d54575f5ffd5b843593506020850135613d6681613d34565b925060408501356001600160401b03811115613d80575f5ffd5b613d8c87828801613b30565b95989497509550505050565b5f5f60408385031215613da9575f5ffd5b82359150613db960208401613c05565b90509250929050565b634e487b7160e01b5f52602160045260245ffd5b6080810160058610613dea57613dea613dc2565b94815261ffff93841660208201529190921660408201526060015290565b5f5f83601f840112613e18575f5ffd5b5081356001600160401b03811115613e2e575f5ffd5b6020830191508360208260061b8501011115612546575f5ffd5b5f5f5f60408486031215613e5a575f5ffd5b83356001600160401b03811115613e6f575f5ffd5b613e7b86828701613e08565b909790965060209590950135949350505050565b5f5f5f60608486031215613ea1575f5ffd5b8335925060208401359150604084013560048110613d29575f5ffd5b5f5f5f60608486031215613ecf575f5ffd5b83359250613edf60208501613c05565b9150613eed60408501613c05565b90509250925092565b5f8151808452602084019350602083015f5b82811015613f2f5781516001600160a01b0316865260209586019590910190600101613f08565b5093949350505050565b604081525f613f4b6040830185613ef6565b82810360208401528084518083526020830191506020860192505f5b81811015613f85578351835260209384019390920191600101613f67565b50909695505050505050565b5f5f5f5f60408587031215613fa4575f5ffd5b84356001600160401b03811115613fb9575f5ffd5b613fc587828801613e08565b90955093505060208501356001600160401b03811115613fe3575f5ffd5b8501601f81018713613ff3575f5ffd5b80356001600160401b03811115614008575f5ffd5b876020828401011115614019575f5ffd5b949793965060200194505050565b5f5f60408385031215614038575f5ffd5b61404183613c05565b9150613db960208401613c05565b602081525f610d206020830184613ef6565b634e487b7160e01b5f52603260045260245ffd5b5f60208284031215614085575f5ffd5b8151610d2081613d34565b600181811c908216806140a457607f821691505b6020821081036140c257634e487b7160e01b5f52602260045260245ffd5b50919050565b5f602082840312156140d8575f5ffd5b5051919050565b6001600160a01b039390931683526020830191909152604082015260600190565b6001600160a01b039384168152919092166020820152604081019190915260600190565b634e487b7160e01b5f52601160045260245ffd5b8082018082111561089d5761089d614124565b8181038181111561089d5761089d614124565b6001815b60018411156141995780850481111561417d5761417d614124565b600184161561418b57908102905b60019390931c928002614162565b935093915050565b5f826141af5750600161089d565b816141bb57505f61089d565b81600181146141d157600281146141db576141f7565b600191505061089d565b60ff8411156141ec576141ec614124565b50506001821b61089d565b5060208310610133831016604e8410600b841016171561421a575081810a61089d565b6142265f19848461415e565b805f190482111561423957614239614124565b029392505050565b5f610d2060ff8416836141a1565b634e487b7160e01b5f52604160045260245ffd5b604051601f8201601f191681016001600160401b038111828210171561428b5761428b61424f565b604052919050565b5f6001600160401b038311156142ab576142ab61424f565b8260051b6142bb60208201614263565b848152908301906020810190368311156142d3575f5ffd5b845b8381101561436b5780356001600160401b038111156142f2575f5ffd5b860136601f820112614302575f5ffd5b80356001600160401b0381111561431b5761431b61424f565b61432e601f8201601f1916602001614263565b818152366020838501011115614342575f5ffd5b816020840160208301375f602083830101528086525050506020830192506020810190506142d5565b5095945050505050565b6001600160a01b03929092168252602082015260400190565b5f6020828403121561439e575f5ffd5b8151610d2081613ccf565b60ff828116828216039081111561089d5761089d614124565b634e487b7160e01b5f52601260045260245ffd5b5f602082840312156143e6575f5ffd5b815163ffffffff81168114610d20575f5ffd5b5f8151808452602084019350602083015f5b82811015613f2f57815186526020958601959091019060010161440b565b606081525f61443b60608301866143f9565b828103602084015261444d8186613bae565b9050828103604084015280845180835260208301915060208160051b840101602087015f5b838110156144a457601f1986840301855261448e838351613bae565b6020958601959093509190910190600101614472565b50909998505050505050505050565b5f60ff8316806144d157634e487b7160e01b5f52601260045260245ffd5b8060ff84160691505092915050565b605481106144f0576144f0613dc2565b9052565b8481526001600160a01b03841660208201526080604082018190525f9061451d90830185613bae565b905061244660608301846144e0565b9182526001600160a01b0316602082015260400190565b92835260208301919091526001600160f81b031916604082015260600190565b82815260408101610d2060208301846144e0565b602081525f610d2060208301846143f9565b838152606060208201525f6145a160608301856143f9565b905063ffffffff60e01b83166040830152949350505050565b5f600182016145cb576145cb614124565b5060010190565b5f602082840312156145e2575f5ffd5b8151610d2081613cdd565b634e487b7160e01b5f52603160045260245ffdfea26469706673582212206614024de7818e4bc144daf86b3486d1c501202ecc6b6988b0805f560d699cd664736f6c634300081c0033ed8d60e34876f751cc8b014c560745351147d9de11b9347c854e881b128ea600ed8d60e34876f751cc8b014c560745351147d9de11b9347c854e881b128ea601a26469706673582212206bb50cdfc8dac9731166cf2407ed58f0ba5f010f0c0e8d582a29274fad76dcf564736f6c634300081c0033",
  "linkReferences": {},
  "deployedLinkReferences": {}
}