{
  "_format": "hh-sol-artifact-1",
  "contractName": "OrionConfig",
  "sourceName": "contracts/OrionConfig.sol",
  "abi": [
    {
      "inputs": [
        {
          "internalType": "address",
          "name": "initialOwner",
          "type": "address"
        },
        {
          "internalType": "address",
          "name": "underlyingAsset_",
          "type": "address"
        }
      ],
      "stateMutability": "nonpayable",
      "type": "constructor"
    },
    {
      "inputs": [],
      "name": "AlreadyRegistered",
      "type": "error"
    },
    {
      "inputs": [
        {
          "internalType": "address",
          "name": "owner",
          "type": "address"
        }
      ],
      "name": "OwnableInvalidOwner",
      "type": "error"
    },
    {
      "inputs": [
        {
          "internalType": "address",
          "name": "account",
          "type": "address"
        }
      ],
      "name": "OwnableUnauthorizedAccount",
      "type": "error"
    },
    {
      "inputs": [],
      "name": "SystemNotIdle",
      "type": "error"
    },
    {
      "inputs": [
        {
          "internalType": "address",
          "name": "token",
          "type": "address"
        }
      ],
      "name": "TokenNotWhitelisted",
      "type": "error"
    },
    {
      "inputs": [],
      "name": "UnauthorizedAccess",
      "type": "error"
    },
    {
      "inputs": [],
      "name": "ZeroAddress",
      "type": "error"
    },
    {
      "anonymous": false,
      "inputs": [
        {
          "indexed": true,
          "internalType": "address",
          "name": "vault",
          "type": "address"
        }
      ],
      "name": "OrionVaultAdded",
      "type": "event"
    },
    {
      "anonymous": false,
      "inputs": [
        {
          "indexed": true,
          "internalType": "address",
          "name": "vault",
          "type": "address"
        }
      ],
      "name": "OrionVaultRemoved",
      "type": "event"
    },
    {
      "anonymous": false,
      "inputs": [
        {
          "indexed": true,
          "internalType": "address",
          "name": "previousOwner",
          "type": "address"
        },
        {
          "indexed": true,
          "internalType": "address",
          "name": "newOwner",
          "type": "address"
        }
      ],
      "name": "OwnershipTransferred",
      "type": "event"
    },
    {
      "anonymous": false,
      "inputs": [
        {
          "indexed": true,
          "internalType": "uint16",
          "name": "riskFreeRate",
          "type": "uint16"
        }
      ],
      "name": "RiskFreeRateUpdated",
      "type": "event"
    },
    {
      "anonymous": false,
      "inputs": [
        {
          "indexed": true,
          "internalType": "address",
          "name": "asset",
          "type": "address"
        }
      ],
      "name": "WhitelistedAssetAdded",
      "type": "event"
    },
    {
      "anonymous": false,
      "inputs": [
        {
          "indexed": true,
          "internalType": "address",
          "name": "asset",
          "type": "address"
        }
      ],
      "name": "WhitelistedAssetRemoved",
      "type": "event"
    },
    {
      "inputs": [
        {
          "internalType": "address",
          "name": "vault",
          "type": "address"
        },
        {
          "internalType": "enum EventsLib.VaultType",
          "name": "vaultType",
          "type": "uint8"
        }
      ],
      "name": "addOrionVault",
      "outputs": [],
      "stateMutability": "nonpayable",
      "type": "function"
    },
    {
      "inputs": [
        {
          "internalType": "address",
          "name": "asset",
          "type": "address"
        },
        {
          "internalType": "address",
          "name": "priceAdapter",
          "type": "address"
        },
        {
          "internalType": "address",
          "name": "executionAdapter",
          "type": "address"
        }
      ],
      "name": "addWhitelistedAsset",
      "outputs": [],
      "stateMutability": "nonpayable",
      "type": "function"
    },
    {
      "inputs": [],
      "name": "curatorIntentDecimals",
      "outputs": [
        {
          "internalType": "uint8",
          "name": "",
          "type": "uint8"
        }
      ],
      "stateMutability": "view",
      "type": "function"
    },
    {
      "inputs": [],
      "name": "encryptedVaultFactory",
      "outputs": [
        {
          "internalType": "address",
          "name": "",
          "type": "address"
        }
      ],
      "stateMutability": "view",
      "type": "function"
    },
    {
      "inputs": [
        {
          "internalType": "enum EventsLib.VaultType",
          "name": "vaultType",
          "type": "uint8"
        }
      ],
      "name": "getAllOrionVaults",
      "outputs": [
        {
          "internalType": "address[]",
          "name": "",
          "type": "address[]"
        }
      ],
      "stateMutability": "view",
      "type": "function"
    },
    {
      "inputs": [],
      "name": "getAllWhitelistedAssets",
      "outputs": [
        {
          "internalType": "address[]",
          "name": "assets",
          "type": "address[]"
        }
      ],
      "stateMutability": "view",
      "type": "function"
    },
    {
      "inputs": [
        {
          "internalType": "uint16",
          "name": "index",
          "type": "uint16"
        }
      ],
      "name": "getWhitelistedAssetAt",
      "outputs": [
        {
          "internalType": "address",
          "name": "",
          "type": "address"
        }
      ],
      "stateMutability": "view",
      "type": "function"
    },
    {
      "inputs": [],
      "name": "internalStatesOrchestrator",
      "outputs": [
        {
          "internalType": "address",
          "name": "",
          "type": "address"
        }
      ],
      "stateMutability": "view",
      "type": "function"
    },
    {
      "inputs": [
        {
          "internalType": "address",
          "name": "vault",
          "type": "address"
        }
      ],
      "name": "isOrionVault",
      "outputs": [
        {
          "internalType": "bool",
          "name": "",
          "type": "bool"
        }
      ],
      "stateMutability": "view",
      "type": "function"
    },
    {
      "inputs": [],
      "name": "isSystemIdle",
      "outputs": [
        {
          "internalType": "bool",
          "name": "",
          "type": "bool"
        }
      ],
      "stateMutability": "view",
      "type": "function"
    },
    {
      "inputs": [
        {
          "internalType": "address",
          "name": "asset",
          "type": "address"
        }
      ],
      "name": "isWhitelisted",
      "outputs": [
        {
          "internalType": "bool",
          "name": "",
          "type": "bool"
        }
      ],
      "stateMutability": "view",
      "type": "function"
    },
    {
      "inputs": [],
      "name": "liquidityOrchestrator",
      "outputs": [
        {
          "internalType": "address",
          "name": "",
          "type": "address"
        }
      ],
      "stateMutability": "view",
      "type": "function"
    },
    {
      "inputs": [],
      "name": "owner",
      "outputs": [
        {
          "internalType": "address",
          "name": "",
          "type": "address"
        }
      ],
      "stateMutability": "view",
      "type": "function"
    },
    {
      "inputs": [],
      "name": "priceAdapterDecimals",
      "outputs": [
        {
          "internalType": "uint8",
          "name": "",
          "type": "uint8"
        }
      ],
      "stateMutability": "view",
      "type": "function"
    },
    {
      "inputs": [],
      "name": "priceAdapterRegistry",
      "outputs": [
        {
          "internalType": "address",
          "name": "",
          "type": "address"
        }
      ],
      "stateMutability": "view",
      "type": "function"
    },
    {
      "inputs": [
        {
          "internalType": "address",
          "name": "vault",
          "type": "address"
        },
        {
          "internalType": "enum EventsLib.VaultType",
          "name": "vaultType",
          "type": "uint8"
        }
      ],
      "name": "removeOrionVault",
      "outputs": [],
      "stateMutability": "nonpayable",
      "type": "function"
    },
    {
      "inputs": [
        {
          "internalType": "address",
          "name": "asset",
          "type": "address"
        }
      ],
      "name": "removeWhitelistedAsset",
      "outputs": [],
      "stateMutability": "nonpayable",
      "type": "function"
    },
    {
      "inputs": [],
      "name": "renounceOwnership",
      "outputs": [],
      "stateMutability": "nonpayable",
      "type": "function"
    },
    {
      "inputs": [],
      "name": "riskFreeRate",
      "outputs": [
        {
          "internalType": "uint16",
          "name": "",
          "type": "uint16"
        }
      ],
      "stateMutability": "view",
      "type": "function"
    },
    {
      "inputs": [
        {
          "internalType": "address",
          "name": "orchestrator",
          "type": "address"
        }
      ],
      "name": "setInternalStatesOrchestrator",
      "outputs": [],
      "stateMutability": "nonpayable",
      "type": "function"
    },
    {
      "inputs": [
        {
          "internalType": "address",
          "name": "orchestrator",
          "type": "address"
        }
      ],
      "name": "setLiquidityOrchestrator",
      "outputs": [],
      "stateMutability": "nonpayable",
      "type": "function"
    },
    {
      "inputs": [
        {
          "internalType": "address",
          "name": "registry",
          "type": "address"
        }
      ],
      "name": "setPriceAdapterRegistry",
      "outputs": [],
      "stateMutability": "nonpayable",
      "type": "function"
    },
    {
      "inputs": [
        {
          "internalType": "uint16",
          "name": "_riskFreeRate",
          "type": "uint16"
        }
      ],
      "name": "setProtocolRiskFreeRate",
      "outputs": [],
      "stateMutability": "nonpayable",
      "type": "function"
    },
    {
      "inputs": [
        {
          "internalType": "address",
          "name": "transparentFactory",
          "type": "address"
        },
        {
          "internalType": "address",
          "name": "encryptedFactory",
          "type": "address"
        }
      ],
      "name": "setVaultFactories",
      "outputs": [],
      "stateMutability": "nonpayable",
      "type": "function"
    },
    {
      "inputs": [
        {
          "internalType": "address",
          "name": "newOwner",
          "type": "address"
        }
      ],
      "name": "transferOwnership",
      "outputs": [],
      "stateMutability": "nonpayable",
      "type": "function"
    },
    {
      "inputs": [],
      "name": "transparentVaultFactory",
      "outputs": [
        {
          "internalType": "address",
          "name": "",
          "type": "address"
        }
      ],
      "stateMutability": "view",
      "type": "function"
    },
    {
      "inputs": [],
      "name": "underlyingAsset",
      "outputs": [
        {
          "internalType": "contract IERC20",
          "name": "",
          "type": "address"
        }
      ],
      "stateMutability": "view",
      "type": "function"
    },
    {
      "inputs": [],
      "name": "whitelistedAssetsLength",
      "outputs": [
        {
          "internalType": "uint16",
          "name": "",
          "type": "uint16"
        }
      ],
      "stateMutability": "view",
      "type": "function"
    }
  ],
  "bytecode": "0x608060405234801561000f575f5ffd5b506040516114fa3803806114fa83398101604081905261002e916101d6565b816001600160a01b03811661005c57604051631e4fbdf760e01b81525f600482015260240160405180910390fd5b61006581610103565b506001600160a01b03811661008d5760405163d92e233d60e01b815260040160405180910390fd5b600180546001600160a01b0319166001600160a01b0383161790556006805461ffff60a01b191661120960a01b1790556100c8600782610152565b506040516001600160a01b038216907fdcbd8d9d0373041250f6c25b6b7aeccb3e9ff291e510ef85bb9f8ac09ceb6f64905f90a25050610207565b5f80546001600160a01b038381166001600160a01b0319831681178455604051919092169283917f8be0079c531659141344cd1fd0a4f28419497f9722a3daafe3b4186f6b6457e09190a35050565b5f610166836001600160a01b03841661016f565b90505b92915050565b5f8181526001830160205260408120546101b457508154600181810184555f848152602080822090930184905584548482528286019093526040902091909155610169565b505f610169565b80516001600160a01b03811681146101d1575f5ffd5b919050565b5f5f604083850312156101e7575f5ffd5b6101f0836101bb565b91506101fe602084016101bb565b90509250929050565b6112e6806102145f395ff3fe608060405234801561000f575f5ffd5b5060043610610152575f3560e01c8063015df993146101565780630a8b78c71461017f5780631dbc3c04146101945780632095b01e146101a757806323a06a1c146101ba5780632430dbf3146101cd578063348ec5c8146101e05780633a0dad8e146101f35780633af32abf14610206578063567ba713146102295780635f2483681461024f57806366e87e7f1461026a578063715018a61461027d5780637158da7c146102855780637a0cb78414610298578063849ede23146102ab5780638da5cb5b146102be57806391a848f3146102c6578063a51b8d5a146102d9578063b6dfcd8b146102ec578063c30dd727146102ff578063d1717c7d14610312578063d86cd44e14610326578063e0876b441461033b578063ed04f2181461034e578063edcf9c1f14610361578063f2fde38b14610369578063f3cc69931461037c575b5f5ffd5b600654610169906001600160a01b031681565b6040516101769190611077565b60405180910390f35b61019261018d3660046110a6565b610391565b005b6101926101a23660046110cd565b61040c565b6101926101b53660046110a6565b6104c9565b6101926101c83660046110fe565b610569565b6101696101db36600461113e565b6106b9565b600254610169906001600160a01b031681565b600354610169906001600160a01b031681565b6102196102143660046110a6565b6106cf565b6040519015158152602001610176565b60065461023d90600160a81b900460ff1681565b60405160ff9091168152602001610176565b6102576106db565b60405161ffff9091168152602001610176565b61019261027836600461113e565b6106eb565b610192610768565b600154610169906001600160a01b031681565b6101926102a63660046110cd565b61077b565b600454610169906001600160a01b031681565b610169610876565b600554610169906001600160a01b031681565b6101926102e736600461115f565b610884565b6101926102fa3660046110a6565b61096e565b61019261030d3660046110a6565b610ac3565b60065461023d90600160a01b900460ff1681565b61032e610b3e565b6040516101769190611187565b6102196103493660046110a6565b610bf1565b61032e61035c3660046111d2565b610c0e565b610219610cea565b6101926103773660046110a6565b610dfb565b60065461025790600160b01b900461ffff1681565b610399610e38565b6001600160a01b0381166103c05760405163d92e233d60e01b815260040160405180910390fd5b6002546001600160a01b0316156103ea57604051630ea075bf60e21b815260040160405180910390fd5b600280546001600160a01b0319166001600160a01b0392909216919091179055565b610414610e38565b61041c610cea565b610439576040516312aecd8160e01b815260040160405180910390fd5b5f600182600181111561044e5761044e6111eb565b036104655761045e600b84610e6a565b9050610473565b610470600984610e6a565b90505b8061049157604051631a27eac360e11b815260040160405180910390fd5b6040516001600160a01b038416907fe47da341e0fc63816c1254f1c35425f69460f49342668d11c984ea56762b00d4905f90a2505050565b6104d1610e38565b6104d9610cea565b6104f6576040516312aecd8160e01b815260040160405180910390fd5b6001600160a01b03811661051d5760405163d92e233d60e01b815260040160405180910390fd5b6006546001600160a01b03161561054757604051630ea075bf60e21b815260040160405180910390fd5b600680546001600160a01b0319166001600160a01b0392909216919091179055565b610571610e38565b610579610cea565b610596576040516312aecd8160e01b815260040160405180910390fd5b5f6105a2600785610e85565b9050806105c257604051630ea075bf60e21b815260040160405180910390fd5b6006546040516302707eef60e51b81526001600160a01b0390911690634e0fdde0906105f490879087906004016111ff565b5f604051808303815f87803b15801561060b575f5ffd5b505af115801561061d573d5f5f3e3d5ffd5b50506003546040516359017aa960e01b81526001600160a01b0390911692506359017aa9915061065390879086906004016111ff565b5f604051808303815f87803b15801561066a575f5ffd5b505af115801561067c573d5f5f3e3d5ffd5b50506040516001600160a01b03871692507fdcbd8d9d0373041250f6c25b6b7aeccb3e9ff291e510ef85bb9f8ac09ceb6f6491505f90a250505050565b5f6106c9600761ffff8416610e99565b92915050565b5f6106c9600783610ea4565b5f6106e66007610eb8565b905090565b6106f3610e38565b6106fb610cea565b610718576040516312aecd8160e01b815260040160405180910390fd5b6006805461ffff60b01b1916600160b01b61ffff84811682029290921792839055604051920416907f6c0e50288cc602be5dd504ce35358e01341e3c4f93e2e02b5a030a59bfdb84e2905f90a250565b610770610e38565b6107795f610ec1565b565b6004546001600160a01b031633148015906107a157506005546001600160a01b03163314155b156107bf57604051631a27eac360e11b815260040160405180910390fd5b6001600160a01b0382166107e65760405163d92e233d60e01b815260040160405180910390fd5b5f60018260018111156107fb576107fb6111eb565b036108125761080b600b84610e85565b9050610820565b61081d600984610e85565b90505b8061083e57604051630ea075bf60e21b815260040160405180910390fd5b6040516001600160a01b038416907f9a7094a648c0524f3d62b9167886d30be0e68cf53863fe556edda348f189445a905f90a2505050565b5f546001600160a01b031690565b61088c610e38565b610894610cea565b6108b1576040516312aecd8160e01b815260040160405180910390fd5b6001600160a01b0382166108d85760405163d92e233d60e01b815260040160405180910390fd5b6001600160a01b0381166108ff5760405163d92e233d60e01b815260040160405180910390fd5b6004546001600160a01b031615158061092257506005546001600160a01b031615155b1561094057604051630ea075bf60e21b815260040160405180910390fd5b600480546001600160a01b039384166001600160a01b03199182161790915560058054929093169116179055565b610976610e38565b61097e610cea565b61099b576040516312aecd8160e01b815260040160405180910390fd5b5f6109a7600783610e6a565b9050806109d2578160405163751dff9760e11b81526004016109c99190611077565b60405180910390fd5b600654604051634386017560e01b81526001600160a01b0390911690634386017590610a02908590600401611077565b5f604051808303815f87803b158015610a19575f5ffd5b505af1158015610a2b573d5f5f3e3d5ffd5b505060035460405163841181ef60e01b81526001600160a01b03909116925063841181ef9150610a5f908590600401611077565b5f604051808303815f87803b158015610a76575f5ffd5b505af1158015610a88573d5f5f3e3d5ffd5b50506040516001600160a01b03851692507f952363a786fc6f24cfb955cd6207cf91ecee3a82a7dd0bc26891ff7647b5784c91505f90a25050565b610acb610e38565b6001600160a01b038116610af25760405163d92e233d60e01b815260040160405180910390fd5b6003546001600160a01b031615610b1c57604051630ea075bf60e21b815260040160405180910390fd5b600380546001600160a01b0319166001600160a01b0392909216919091179055565b60605f610b4b6007610eb8565b90508061ffff166001600160401b03811115610b6957610b69611219565b604051908082528060200260200182016040528015610b92578160200160208202803683370190505b5091505f5b8161ffff168161ffff161015610bec57610bb6600761ffff8316610e99565b838261ffff1681518110610bcc57610bcc61122d565b6001600160a01b0390921660209283029190910190910152600101610b97565b505090565b5f610bfd600b83610ea4565b806106c957506106c9600983610ea4565b60605f6001836001811115610c2557610c256111eb565b14610c31576009610c34565b600b5b90505f610c4082610eb8565b90505f8161ffff166001600160401b03811115610c5f57610c5f611219565b604051908082528060200260200182016040528015610c88578160200160208202803683370190505b5090505f5b8261ffff168161ffff161015610ce157610cab8461ffff8316610e99565b828261ffff1681518110610cc157610cc161122d565b6001600160a01b0390921660209283029190910190910152600101610c8d565b50949350505050565b5f8060035f9054906101000a90046001600160a01b03166001600160a01b031663055ad42e6040518163ffffffff1660e01b8152600401602060405180830381865afa158015610d3c573d5f5f3e3d5ffd5b505050506040513d601f19601f82011682018060405250810190610d609190611241565b6003811115610d7157610d716111eb565b1480156106e65750600254604080516302ad6a1760e11b815290515f926001600160a01b03169163055ad42e9160048083019260209291908290030181865afa158015610dc0573d5f5f3e3d5ffd5b505050506040513d601f19601f82011682018060405250810190610de4919061125f565b6006811115610df557610df56111eb565b14905090565b610e03610e38565b6001600160a01b038116610e2c575f604051631e4fbdf760e01b81526004016109c99190611077565b610e3581610ec1565b50565b33610e41610876565b6001600160a01b031614610779573360405163118cdaa760e01b81526004016109c99190611077565b5f610e7e836001600160a01b038416610f10565b9392505050565b5f610e7e836001600160a01b038416610ff3565b5f610e7e838361103a565b5f610e7e836001600160a01b038416611060565b5f6106c9825490565b5f80546001600160a01b038381166001600160a01b0319831681178455604051919092169283917f8be0079c531659141344cd1fd0a4f28419497f9722a3daafe3b4186f6b6457e09190a35050565b5f8181526001830160205260408120548015610fea575f610f3260018361127d565b85549091505f90610f459060019061127d565b9050808214610fa4575f865f018281548110610f6357610f6361122d565b905f5260205f200154905080875f018481548110610f8357610f8361122d565b5f918252602080832090910192909255918252600188019052604090208390555b8554869080610fb557610fb561129c565b600190038181905f5260205f20015f90559055856001015f8681526020019081526020015f205f9055600193505050506106c9565b5f9150506106c9565b5f610ffe8383611060565b61103357508154600181810184555f8481526020808220909301849055845484825282860190935260409020919091556106c9565b505f6106c9565b5f825f01828154811061104f5761104f61122d565b905f5260205f200154905092915050565b5f9081526001919091016020526040902054151590565b6001600160a01b0391909116815260200190565b80356001600160a01b03811681146110a1575f5ffd5b919050565b5f602082840312156110b6575f5ffd5b610e7e8261108b565b8035600281106110a1575f5ffd5b5f5f604083850312156110de575f5ffd5b6110e78361108b565b91506110f5602084016110bf565b90509250929050565b5f5f5f60608486031215611110575f5ffd5b6111198461108b565b92506111276020850161108b565b91506111356040850161108b565b90509250925092565b5f6020828403121561114e575f5ffd5b813561ffff81168114610e7e575f5ffd5b5f5f60408385031215611170575f5ffd5b6111798361108b565b91506110f56020840161108b565b602080825282518282018190525f918401906040840190835b818110156111c75783516001600160a01b03168352602093840193909201916001016111a0565b509095945050505050565b5f602082840312156111e2575f5ffd5b610e7e826110bf565b634e487b7160e01b5f52602160045260245ffd5b6001600160a01b0392831681529116602082015260400190565b634e487b7160e01b5f52604160045260245ffd5b634e487b7160e01b5f52603260045260245ffd5b5f60208284031215611251575f5ffd5b815160048110610e7e575f5ffd5b5f6020828403121561126f575f5ffd5b815160078110610e7e575f5ffd5b818103818111156106c957634e487b7160e01b5f52601160045260245ffd5b634e487b7160e01b5f52603160045260245ffdfea2646970667358221220c066167d6693c939de3a3c01b014c85d5c0214cf34b127c5876be6fca29469f664736f6c634300081c0033",
  "linkReferences": {},
  "deployedLinkReferences": {}
}