{
  "_format": "hh-sol-artifact-1",
  "contractName": "TransparentVaultFactory",
  "sourceName": "contracts/factories/TransparentVaultFactory.sol",
  "abi": [
    {
      "inputs": [
        {
          "internalType": "address",
          "name": "configAddress",
          "type": "address"
        }
      ],
      "stateMutability": "nonpayable",
      "type": "constructor"
    },
    {
      "inputs": [],
      "name": "SystemNotIdle",
      "type": "error"
    },
    {
      "inputs": [],
      "name": "ZeroAddress",
      "type": "error"
    },
    {
      "anonymous": false,
      "inputs": [
        {
          "indexed": true,
          "internalType": "address",
          "name": "vault",
          "type": "address"
        },
        {
          "indexed": true,
          "internalType": "address",
          "name": "vaultOwner",
          "type": "address"
        },
        {
          "indexed": true,
          "internalType": "address",
          "name": "curator",
          "type": "address"
        },
        {
          "indexed": false,
          "internalType": "enum EventsLib.VaultType",
          "name": "vaultType",
          "type": "uint8"
        }
      ],
      "name": "OrionVaultCreated",
      "type": "event"
    },
    {
      "inputs": [],
      "name": "config",
      "outputs": [
        {
          "internalType": "contract IOrionConfig",
          "name": "",
          "type": "address"
        }
      ],
      "stateMutability": "view",
      "type": "function"
    },
    {
      "inputs": [
        {
          "internalType": "address",
          "name": "curator",
          "type": "address"
        },
        {
          "internalType": "string",
          "name": "name",
          "type": "string"
        },
        {
          "internalType": "string",
          "name": "symbol",
          "type": "string"
        },
        {
          "internalType": "uint8",
          "name": "feeType",
          "type": "uint8"
        },
        {
          "internalType": "uint16",
          "name": "performanceFee",
          "type": "uint16"
        },
        {
          "internalType": "uint16",
          "name": "managementFee",
          "type": "uint16"
        }
      ],
      "name": "createVault",
      "outputs": [
        {
          "internalType": "address",
          "name": "vault",
          "type": "address"
        }
      ],
      "stateMutability": "nonpayable",
      "type": "function"
    }
  ],
  "bytecode": "0x6080604052348015600e575f5ffd5b506040516147e13803806147e1833981016040819052602b916074565b6001600160a01b03811660515760405163d92e233d60e01b815260040160405180910390fd5b5f80546001600160a01b0319166001600160a01b0392909216919091179055609f565b5f602082840312156083575f5ffd5b81516001600160a01b03811681146098575f5ffd5b9392505050565b614735806100ac5f395ff3fe608060405234801561000f575f5ffd5b5060043610610034575f3560e01c8063341624941461003857806379502c5514610067575b5f5ffd5b61004b6100463660046102d3565b610079565b6040516001600160a01b03909116815260200160405180910390f35b5f5461004b906001600160a01b031681565b5f33806100995760405163d92e233d60e01b815260040160405180910390fd5b6001600160a01b038a166100c05760405163d92e233d60e01b815260040160405180910390fd5b5f5f9054906101000a90046001600160a01b03166001600160a01b031663edcf9c1f6040518163ffffffff1660e01b8152600401602060405180830381865afa15801561010f573d5f5f3e3d5ffd5b505050506040513d601f19601f820116820180604052508101906101339190610394565b610150576040516312aecd8160e01b815260040160405180910390fd5b5f818b5f5f9054906101000a90046001600160a01b03168c8c8c8c8c8c8c60405161017a9061026c565b61018d9a999897969594939291906103e2565b604051809103905ff0801580156101a6573d5f5f3e3d5ffd5b505f8054604051631e832de160e21b81529295508593506001600160a01b031691637a0cb784916101dc91859190600401610475565b5f604051808303815f87803b1580156101f3575f5ffd5b505af1158015610205573d5f5f3e3d5ffd5b505050508a6001600160a01b0316826001600160a01b0316846001600160a01b03167fe36cd15f95d58db8766da292a38b27881bfaf9bdb8c464d9855d4e56bc40e7bf5f6040516102569190610492565b60405180910390a4505098975050505050505050565b614259806104a783390190565b5f5f83601f840112610289575f5ffd5b5081356001600160401b0381111561029f575f5ffd5b6020830191508360208285010111156102b6575f5ffd5b9250929050565b803561ffff811681146102ce575f5ffd5b919050565b5f5f5f5f5f5f5f5f60c0898b0312156102ea575f5ffd5b88356001600160a01b0381168114610300575f5ffd5b975060208901356001600160401b0381111561031a575f5ffd5b6103268b828c01610279565b90985096505060408901356001600160401b03811115610344575f5ffd5b6103508b828c01610279565b909650945050606089013560ff81168114610369575f5ffd5b925061037760808a016102bd565b915061038560a08a016102bd565b90509295985092959890939650565b5f602082840312156103a4575f5ffd5b815180151581146103b3575f5ffd5b9392505050565b81835281816020850137505f828201602090810191909152601f909101601f19169091010190565b6001600160a01b038b811682528a8116602083015289166040820152610100606082018190525f90610417908301898b6103ba565b828103608084015261042a81888a6103ba565b60ff9690961660a0840152505061ffff92831660c0820152911660e090910152979650505050505050565b6002811061047157634e487b7160e01b5f52602160045260245ffd5b9052565b6001600160a01b0383168152604081016103b36020830184610455565b602081016104a08284610455565b9291505056fe60c060405234801561000f575f5ffd5b5060405161425938038061425983398101604081905261002e916107f9565b8787878787878787856001600160a01b0316637158da7c6040518163ffffffff1660e01b8152600401602060405180830381865afa158015610072573d5f5f3e3d5ffd5b505050506040513d601f19601f8201168201806040525081019061009691906108c8565b858560036100a4838261096e565b5060046100b1828261096e565b5050505f5f6100c5836104f960201b60201c565b91509150816100d55760126100d7565b805b60ff1660a05250506001600160a01b03908116608052600160055587166101115760405163e6c4247b60e01b815260040160405180910390fd5b6001600160a01b0386166101385760405163e6c4247b60e01b815260040160405180910390fd5b600680546001600160a01b03808b166001600160a01b031992831617909255600780548a841690831617905560088054928916929091168217905560408051630691d8b960e31b8152905163348ec5c8916004808201926020929091908290030181865afa1580156101ac573d5f5f3e3d5ffd5b505050506040513d601f19601f820116820180604052508101906101d091906108c8565b60095f6101000a8154816001600160a01b0302191690836001600160a01b03160217905550856001600160a01b0316633a0dad8e6040518163ffffffff1660e01b8152600401602060405180830381865afa158015610231573d5f5f3e3d5ffd5b505050506040513d601f19601f8201168201806040525081019061025591906108c8565b600a5f6101000a8154816001600160a01b0302191690836001600160a01b03160217905550856001600160a01b031663d1717c7d6040518163ffffffff1660e01b8152600401602060405180830381865afa1580156102b6573d5f5f3e3d5ffd5b505050506040513d601f19601f820116820180604052508101906102da9190610a28565b600a60146101000a81548160ff021916908360ff1602179055505f600d819055505f6014819055505f6015819055505f866001600160a01b0316637158da7c6040518163ffffffff1660e01b8152600401602060405180830381865afa158015610346573d5f5f3e3d5ffd5b505050506040513d601f19601f8201168201806040525081019061036a91906108c8565b6001600160a01b031663313ce5676040518163ffffffff1660e01b8152600401602060405180830381865afa1580156103a5573d5f5f3e3d5ffd5b505050506040513d601f19601f820116820180604052508101906103c99190610a28565b9050601260ff821611156103f057604051631c03248960e11b815260040160405180910390fd5b600460ff85161115610415576040516317dbc4cb60e21b815260040160405180910390fd5b610bb861ffff8416111561043c576040516317dbc4cb60e21b815260040160405180910390fd5b61012c61ffff83161115610463576040516317dbc4cb60e21b815260040160405180910390fd5b8360ff16600481111561047857610478610a41565b6017805460ff1916600183600481111561049457610494610a41565b02179055506017805461ffff84811663010000000264ffff00000019918716610100029190911664ffffffff0019909216919091171790556104d86012600a610b4c565b6018556104e36105cf565b5050505050505050505050505050505050610c4d565b60408051600481526024810182526020810180516001600160e01b031663313ce56760e01b17905290515f918291829182916001600160a01b0387169161053f91610b5a565b5f60405180830381855afa9150503d805f8114610577576040519150601f19603f3d011682016040523d82523d5f602084013e61057c565b606091505b509150915081801561059057506020815110155b156105c3575f818060200190518101906105aa9190610b70565b905060ff81116105c1576001969095509350505050565b505b505f9485945092505050565b60085460408051636c366a2760e11b815290515f926001600160a01b03169163d86cd44e91600480830192869291908290030181865afa158015610615573d5f5f3e3d5ffd5b505050506040513d5f823e601f3d908101601f1916820160405261063c9190810190610b87565b90505f5b81518110156106a0575f61067783838151811061065f5761065f610c39565b6020026020010151600b6106a460201b90919060201c565b90508061069757604051630ea075bf60e21b815260040160405180910390fd5b50600101610640565b5050565b5f6106b8836001600160a01b0384166106c1565b90505b92915050565b5f81815260018301602052604081205461070657508154600181810184555f8481526020808220909301849055845484825282860190935260409020919091556106bb565b505f6106bb565b6001600160a01b0381168114610721575f5ffd5b50565b634e487b7160e01b5f52604160045260245ffd5b604051601f8201601f191681016001600160401b038111828210171561076057610760610724565b604052919050565b5f82601f830112610777575f5ffd5b81516001600160401b0381111561079057610790610724565b6107a3601f8201601f1916602001610738565b8181528460208386010111156107b7575f5ffd5b8160208501602083015e5f918101602001919091529392505050565b805160ff811681146107e3575f5ffd5b919050565b805161ffff811681146107e3575f5ffd5b5f5f5f5f5f5f5f5f610100898b031215610811575f5ffd5b885161081c8161070d565b60208a015190985061082d8161070d565b60408a015190975061083e8161070d565b60608a01519096506001600160401b03811115610859575f5ffd5b6108658b828c01610768565b60808b015190965090506001600160401b03811115610882575f5ffd5b61088e8b828c01610768565b94505061089d60a08a016107d3565b92506108ab60c08a016107e8565b91506108b960e08a016107e8565b90509295985092959890939650565b5f602082840312156108d8575f5ffd5b81516108e38161070d565b9392505050565b600181811c908216806108fe57607f821691505b60208210810361091c57634e487b7160e01b5f52602260045260245ffd5b50919050565b601f82111561096957805f5260205f20601f840160051c810160208510156109475750805b601f840160051c820191505b81811015610966575f8155600101610953565b50505b505050565b81516001600160401b0381111561098757610987610724565b61099b8161099584546108ea565b84610922565b6020601f8211600181146109cd575f83156109b65750848201515b5f19600385901b1c1916600184901b178455610966565b5f84815260208120601f198516915b828110156109fc57878501518255602094850194600190920191016109dc565b5084821015610a1957868401515f19600387901b60f8161c191681555b50505050600190811b01905550565b5f60208284031215610a38575f5ffd5b6106b8826107d3565b634e487b7160e01b5f52602160045260245ffd5b634e487b7160e01b5f52601160045260245ffd5b6001815b6001841115610aa457808504811115610a8857610a88610a55565b6001841615610a9657908102905b60019390931c928002610a6d565b935093915050565b5f82610aba575060016106bb565b81610ac657505f6106bb565b8160018114610adc5760028114610ae657610b02565b60019150506106bb565b60ff841115610af757610af7610a55565b50506001821b6106bb565b5060208310610133831016604e8410600b8410161715610b25575081810a6106bb565b610b315f198484610a69565b805f1904821115610b4457610b44610a55565b029392505050565b5f6106b860ff841683610aac565b5f82518060208501845e5f920191825250919050565b5f60208284031215610b80575f5ffd5b5051919050565b5f60208284031215610b97575f5ffd5b81516001600160401b03811115610bac575f5ffd5b8201601f81018413610bbc575f5ffd5b80516001600160401b03811115610bd557610bd5610724565b8060051b610be560208201610738565b91825260208184018101929081019087841115610c00575f5ffd5b6020850194505b83851015610c2e5784519250610c1c8361070d565b82825260209485019490910190610c07565b979650505050505050565b634e487b7160e01b5f52603260045260245ffd5b60805160a0516135ee610c6b5f395f50505f61108901526135ee5ff3fe608060405234801561000f575f5ffd5b50600436106102a7575f3560e01c806301e1d114146102ab57806303d44854146102c257806306fdde03146102d757806307a2d13a146102ec578063095ea7b3146102ff5780630a28a477146103225780630c6a62dd146103355780630d1e6667146103485780630df571f71461035b578063105444941461036e57806318160ddd1461038157806318c21949146103895780631f52692b1461039c57806323b872dd146103bc5780632dae2967146103cf578063313ce567146103d757806333fdc592146103ec578063348ec5c8146103f457806338d52e0f146104075780633a0dad8e1461040f5780633ab6d27c14610422578063402d267d146104355780634cdad506146102ec5780636e553f651461044957806370a082311461045c578063745400c91461046f5780637847ea531461048257806379502c55146104a25780638f5c9465146104b557806394bf804d1461044957806395d89b41146104d157806397ee1144146104d95780639908840c1461050f578063a68a526714610518578063a9059cbb1461052b578063aa9d3a601461053e578063acdb3d5114610546578063b1bd7e2e1461054f578063b3d7f6b914610562578063b460af9414610575578063b6eba65314610583578063ba08765214610575578063bdca916514610599578063c0b568e1146105a2578063c37fc8a8146105b5578063c63d75b614610435578063c6e6f592146105bd578063cce4705b146105d0578063ce96cb77146105e3578063d1699c26146105f6578063d1717c7d146105fe578063d3d0345814610612578063d853365f14610628578063d905777e14610630578063dd62ed3e14610643578063e51a85f614610656578063e66f53b714610669578063e9c30a1a1461067c578063ef8b30f7146105bd575b5f5ffd5b600d545b6040519081526020015b60405180910390f35b6102d56102d0366004612df5565b610691565b005b6102df6107cb565b6040516102b99190612e64565b6102af6102fa366004612e99565b61085b565b61031261030d366004612ecb565b61086c565b60405190151581526020016102b9565b6102af610330366004612e99565b610883565b6102d5610343366004612ef3565b61088f565b6102d5610356366004612e99565b610903565b6102d5610369366004612f0c565b610b7a565b6102d561037c366004612f6c565b610bf5565b6002546102af565b6102d5610397366004612e99565b610cf0565b6006546103af906001600160a01b031681565b6040516102b99190612fb3565b6103126103ca366004612fc7565b610dc6565b6102d5610deb565b60125b60405160ff90911681526020016102b9565b6102d5610e3a565b6009546103af906001600160a01b031681565b6103af611087565b600a546103af906001600160a01b031681565b6102d561043036600461301e565b6110ab565b6102af610443366004612ef3565b505f1990565b6102af610457366004613066565b611278565b6102af61046a366004612ef3565b611292565b6102d561047d366004612e99565b6112ac565b61048d6301e1338081565b60405163ffffffff90911681526020016102b9565b6008546103af906001600160a01b031681565b6104be61271081565b60405161ffff90911681526020016102b9565b6102df61148b565b6017546018546104ff9160ff81169161ffff610100830481169263010000009004169084565b6040516102b994939291906130a4565b6104be61012c81565b6102af6105263660046130e2565b61149a565b610312610539366004612ecb565b6114da565b6102d56114e7565b6102af60165481565b6102d561055d366004613110565b611783565b6102af610570366004612e99565b6119bf565b6102af61045736600461314e565b61058b6119cb565b6040516102b99291906131ca565b6104be610bb881565b6102d56105b0366004612e99565b611b05565b6015546102af565b6102af6105cb366004612e99565b611cbf565b6102d56105de366004612e99565b611cca565b6102af6105f1366004612ef3565b611ebe565b6014546102af565b600a546103da90600160a01b900460ff1681565b61061a611ed1565b6040516102b9929190613228565b6103da601281565b6102af61063e366004612ef3565b611ffb565b6102af610651366004613274565b612005565b6102af610664366004612e99565b61202f565b6007546103af906001600160a01b031681565b610684612068565b6040516102b9919061329c565b6006546001600160a01b031633146106bc57604051631a27eac360e11b815260040160405180910390fd5b6106c6600b612079565b5f5b818110156107c6575f8383838181106106e3576106e36132ae565b90506020020160208101906106f89190612ef3565b600854604051633af32abf60e01b81529192506001600160a01b031690633af32abf90610729908490600401612fb3565b602060405180830381865afa158015610744573d5f5f3e3d5ffd5b505050506040513d601f19601f8201168201806040525081019061076891906132c2565b610790578060405163751dff9760e11b81526004016107879190612fb3565b60405180910390fd5b5f61079c600b83612082565b9050806107bc57604051630ea075bf60e21b815260040160405180910390fd5b50506001016106c8565b505050565b6060600380546107da906132e1565b80601f0160208091040260200160405190810160405280929190818152602001828054610806906132e1565b80156108515780601f1061082857610100808354040283529160200191610851565b820191905f5260205f20905b81548152906001019060200180831161083457829003601f168201915b5050505050905090565b5f610866825f612096565b92915050565b5f336108798185856120d7565b5060019392505050565b5f6108668260016120e4565b6006546001600160a01b031633146108ba57604051631a27eac360e11b815260040160405180910390fd5b6001600160a01b0381166108e15760405163e6c4247b60e01b815260040160405180910390fd5b600780546001600160a01b0319166001600160a01b0392909216919091179055565b61090b612116565b60085f9054906101000a90046001600160a01b03166001600160a01b031663edcf9c1f6040518163ffffffff1660e01b8152600401602060405180830381865afa15801561095b573d5f5f3e3d5ffd5b505050506040513d601f19601f8201168201806040525081019061097f91906132c2565b61099c576040516312aecd8160e01b815260040160405180910390fd5b805f036109c5576109ab611087565b604051636b30633560e01b81526004016107879190612fb3565b5f6109ce611087565b6001600160a01b03166370a08231336040518263ffffffff1660e01b81526004016109f99190612fb3565b602060405180830381865afa158015610a14573d5f5f3e3d5ffd5b505050506040513d601f19601f82011682018060405250810190610a389190613319565b905080821115610a6157338183604051632e2a182f60e11b815260040161078793929190613330565b5f610a6a611087565b600a546040516323b872dd60e01b81526001600160a01b03928316926323b872dd92610aa0923392909116908890600401613351565b6020604051808303815f875af1158015610abc573d5f5f3e3d5ffd5b505050506040513d601f19601f82011682018060405250810190610ae091906132c2565b905080610b00576040516312171d8360e31b815260040160405180910390fd5b5f610b0c600e33612140565b9150610b27905033610b1e8684613389565b600e9190612166565b508360145f828254610b399190613389565b9091555050604051849033907f08d79f77ab5f78e7e780abb1f7ac9e9923340d5bae78f6e83e7999905b248ea2905f90a3505050610b776001600555565b50565b600a546001600160a01b03163314610ba557604051631a27eac360e11b815260040160405180910390fd5b8015610bf1578060165f828254610bbc9190613389565b9091555050601654604051829084907f8b8789cf9157fe7b016901e4ed3a5d0971caa8b7c031da0b25638ccf65841b2a905f90a45b5050565b600a546001600160a01b03163314610c2057604051631a27eac360e11b815260040160405180910390fd5b610c2a601961217b565b815f5b8161ffff168161ffff161015610cba57610cb185858361ffff16818110610c5657610c566132ae565b610c6c9260206040909202019081019150612ef3565b86868461ffff16818110610c8257610c826132ae565b9050604002016020016020810190610c9a91906133ad565b63ffffffff1660196121669092919063ffffffff16565b50600101610c2d565b50600d82905560405182907f5e1ff954b5e5257e9ee5d4cb07059e8f5e69b1aaaf9911e5d8d90a6894de9c21905f90a250505050565b6006546001600160a01b03163314610d1b57604051631a27eac360e11b815260040160405180910390fd5b805f03610d2a576109ab611087565b601654811115610d5457601654604051632e2a182f60e11b81526107879130918490600401613330565b8060165f828254610d6591906133c8565b9091555050600a5460405163741fca4b60e01b8152600481018390526001600160a01b039091169063741fca4b906024015f604051808303815f87803b158015610dad575f5ffd5b505af1158015610dbf573d5f5f3e3d5ffd5b5050505050565b5f33610dd3858285612184565b610dde8585856121d5565b60019150505b9392505050565b600a546001600160a01b03163314610e1657604051631a27eac360e11b815260040160405180910390fd5b5f610e2860125b6102fa90600a6134be565b601854909150811115610b7757601855565b600a546001600160a01b03163314610e6557604051631a27eac360e11b815260040160405180910390fd5b610e6d612116565b5f610e78600e612232565b90505f8163ffffffff166001600160401b03811115610e9957610e996134cc565b604051908082528060200260200182016040528015610ec2578160200160208202803683370190505b5090505f8263ffffffff166001600160401b03811115610ee457610ee46134cc565b604051908082528060200260200182016040528015610f0d578160200160208202803683370190505b5090505f5b8363ffffffff168163ffffffff161015610fa7575f80610f3c600e63ffffffff8086169061223c16565b9150915081858463ffffffff1681518110610f5957610f596132ae565b60200260200101906001600160a01b031690816001600160a01b03168152505080848463ffffffff1681518110610f9257610f926132ae565b60209081029190910101525050600101610f12565b505f60148190555b8363ffffffff168163ffffffff161015611077575f838263ffffffff1681518110610fdc57610fdc6132ae565b602002602001015190505f838363ffffffff1681518110610fff57610fff6132ae565b6020026020010151905061101d82600e61224a90919063ffffffff16565b505f61102882611cbf565b9050611034838261225e565b60405182906001600160a01b038516907f85a190caa61692b36b63a55e069330d18ab9af179fed7a25c16a4262bc63b7d2905f90a3505050806001019050610faf565b505050506110856001600555565b565b7f000000000000000000000000000000000000000000000000000000000000000090565b6006546001600160a01b031633146110d657604051631a27eac360e11b815260040160405180910390fd5b60085f9054906101000a90046001600160a01b03166001600160a01b031663edcf9c1f6040518163ffffffff1660e01b8152600401602060405180830381865afa158015611126573d5f5f3e3d5ffd5b505050506040513d601f19601f8201168201806040525081019061114a91906132c2565b611167576040516312aecd8160e01b815260040160405180910390fd5b600460ff8416111561118c576040516317dbc4cb60e21b815260040160405180910390fd5b610bb861ffff831611156111b3576040516317dbc4cb60e21b815260040160405180910390fd5b61012c61ffff821611156111da576040516317dbc4cb60e21b815260040160405180910390fd5b8260ff1660048111156111ef576111ef613090565b6017805460ff1916600183600481111561120b5761120b613090565b02179055506017805464ffffffff00191661010061ffff85811691820264ffff00000019169290921763010000009285169283021790925560405190919060ff8616907fd24f39e523bfa412fa391702710dc62e1c82d87a8e83228a37c42be1b4870f45905f90a4505050565b5f60405163125ad87760e31b815260040160405180910390fd5b6001600160a01b03165f9081526020819052604090205490565b60085f9054906101000a90046001600160a01b03166001600160a01b031663edcf9c1f6040518163ffffffff1660e01b8152600401602060405180830381865afa1580156112fc573d5f5f3e3d5ffd5b505050506040513d601f19601f8201168201806040525081019061132091906132c2565b61133d576040516312aecd8160e01b815260040160405180910390fd5b805f0361135f5730604051636b30633560e01b81526004016107879190612fb3565b5f61136933611292565b90508082111561139257338183604051632e2a182f60e11b815260040161078793929190613330565b6040516323b872dd60e01b81525f9030906323b872dd906113bb90339084908890600401613351565b6020604051808303815f875af11580156113d7573d5f5f3e3d5ffd5b505050506040513d601f19601f820116820180604052508101906113fb91906132c2565b90508061141b576040516312171d8360e31b815260040160405180910390fd5b5f611427601133612140565b91506114429050336114398684613389565b60119190612166565b508360155f8282546114549190613389565b9091555050604051849033907ff7774b688d56120b783560a913ee60792a73dfd511812b7be5eccf10d08c6689905f90a350505050565b6060600480546107da906132e1565b5f6114d26114a9846001613389565b6114b1612292565b6114bc90600a6134be565b6002546114c99190613389565b8691908561230e565b949350505050565b5f336108798185856121d5565b600a546001600160a01b0316331461151257604051631a27eac360e11b815260040160405180910390fd5b61151a612116565b5f6115256011612232565b90505f8163ffffffff166001600160401b03811115611546576115466134cc565b60405190808252806020026020018201604052801561156f578160200160208202803683370190505b5090505f8263ffffffff166001600160401b03811115611591576115916134cc565b6040519080825280602002602001820160405280156115ba578160200160208202803683370190505b5090505f5b8363ffffffff168163ffffffff161015611654575f806115e9601163ffffffff8086169061223c16565b9150915081858463ffffffff1681518110611606576116066132ae565b60200260200101906001600160a01b031690816001600160a01b03168152505080848463ffffffff168151811061163f5761163f6132ae565b602090810291909101015250506001016115bf565b505f60158190555b8363ffffffff168163ffffffff161015611077575f838263ffffffff1681518110611689576116896132ae565b602002602001015190505f838363ffffffff16815181106116ac576116ac6132ae565b602002602001015190506116ca82601161224a90919063ffffffff16565b505f6116d58261085b565b90506116e13083612350565b600a54604051632eea26bd60e11b81526001600160a01b0390911690635dd44d7a9061171390869085906004016134e0565b5f604051808303815f87803b15801561172a575f5ffd5b505af115801561173c573d5f5f3e3d5ffd5b50506040518492506001600160a01b03861691507f44b2ff9ffcefe2052a8afdbed44a04bf3db4592ae90c6b96c818bd28573e41e8905f90a350505080600101905061165c565b6007546001600160a01b031633146117ae57604051631a27eac360e11b815260040160405180910390fd5b5f8190036117cf57604051631121aa8d60e01b815260040160405180910390fd5b6117d9601c61217b565b5f816001600160401b038111156117f2576117f26134cc565b60405190808252806020026020018201604052801561181b578160200160208202803683370190505b5090505f82815b8161ffff168161ffff161015611949575f86868361ffff16818110611849576118496132ae565b61185f9260206040909202019081019150612ef3565b90505f87878461ffff16818110611878576118786132ae565b905060400201602001602081019061189091906133ad565b905081868461ffff16815181106118a9576118a96132ae565b60200260200101906001600160a01b031690816001600160a01b0316815250508063ffffffff165f036118f15781604051636b30633560e01b81526004016107879190612fb3565b5f611907601c8463ffffffff8086169061216616565b90508061192957826040516346bdabe160e01b81526004016107879190612fb3565b61193963ffffffff831687613389565b9550505050806001019050611822565b5061195383612384565b600a60149054906101000a900460ff16600a61196f91906134be565b821461198e57604051639006dd2760e01b815260040160405180910390fd5b60405133907f2d47a742b8d7df7c1fc5a9a631b206b364e6cb2722490759f63bb3ab14b132e0905f90a25050505050565b5f610866826001612096565b6060805f6119d9601c612232565b90508061ffff166001600160401b038111156119f7576119f76134cc565b604051908082528060200260200182016040528015611a20578160200160208202803683370190505b5092508061ffff166001600160401b03811115611a3f57611a3f6134cc565b604051908082528060200260200182016040528015611a68578160200160208202803683370190505b5091505f5b8161ffff168161ffff161015611aff575f80611a8e601c61ffff851661223c565b9150915081868461ffff1681518110611aa957611aa96132ae565b60200260200101906001600160a01b031690816001600160a01b03168152505080858461ffff1681518110611ae057611ae06132ae565b63ffffffff909216602092830291909101909101525050600101611a6d565b50509091565b611b0d612116565b60085f9054906101000a90046001600160a01b03166001600160a01b031663edcf9c1f6040518163ffffffff1660e01b8152600401602060405180830381865afa158015611b5d573d5f5f3e3d5ffd5b505050506040513d601f19601f82011682018060405250810190611b8191906132c2565b611b9e576040516312aecd8160e01b815260040160405180910390fd5b805f03611bad576109ab611087565b5f611bb9600e33612140565b91505081811015611bdd576040516332194fd360e21b815260040160405180910390fd5b600a546040516351edffb160e01b81526001600160a01b03909116906351edffb190611c0f90339086906004016134e0565b5f604051808303815f87803b158015611c26575f5ffd5b505af1158015611c38573d5f5f3e3d5ffd5b505050505f8282611c4991906133c8565b9050805f03611c6357611c5d600e3361224a565b50611c71565b611c6f600e3383612166565b505b8260145f828254611c8291906133c8565b9091555050604051839033907f96a9a6886cdf3047a125454218a23d3961fd3a78643123b248a9d106d0ac94fd905f90a35050610b776001600555565b5f610866825f6120e4565b611cd2612116565b60085f9054906101000a90046001600160a01b03166001600160a01b031663edcf9c1f6040518163ffffffff1660e01b8152600401602060405180830381865afa158015611d22573d5f5f3e3d5ffd5b505050506040513d601f19601f82011682018060405250810190611d4691906132c2565b611d63576040516312aecd8160e01b815260040160405180910390fd5b805f03611d855730604051636b30633560e01b81526004016107879190612fb3565b5f611d91601133612140565b91505081811015611db5576040516312ea1f4960e11b815260040160405180910390fd5b5f611dc083836133c8565b9050805f03611dda57611dd460113361224a565b50611de8565b611de660113383612166565b505b8260155f828254611df991906133c8565b909155505060405163a9059cbb60e01b81525f90309063a9059cbb90611e2590339088906004016134e0565b6020604051808303815f875af1158015611e41573d5f5f3e3d5ffd5b505050506040513d601f19601f82011682018060405250810190611e6591906132c2565b905080611e85576040516312171d8360e31b815260040160405180910390fd5b604051849033907f9cf37535785001dcc9767688232fcbc8698b3002d1207b50bc2afec3ff8934dc905f90a3505050610b776001600555565b5f610866611ecb83611292565b5f612096565b6060805f611edf6019612232565b90508061ffff166001600160401b03811115611efd57611efd6134cc565b604051908082528060200260200182016040528015611f26578160200160208202803683370190505b5092508061ffff166001600160401b03811115611f4557611f456134cc565b604051908082528060200260200182016040528015611f6e578160200160208202803683370190505b5091505f5b8161ffff168161ffff161015611aff575f80611f94601961ffff851661223c565b9150915081868461ffff1681518110611faf57611faf6132ae565b60200260200101906001600160a01b031690816001600160a01b03168152505080858461ffff1681518110611fe657611fe66132ae565b60209081029190910101525050600101611f73565b5f61086682611292565b6001600160a01b039182165f90815260016020908152604080832093909416825291909152205490565b5f5f61203a836123fc565b90505f61204782856133c8565b90505f612053826124c6565b905061205f8184613389565b95945050505050565b6060612074600b612583565b905090565b610b778161258f565b5f610de4836001600160a01b0384166125e8565b5f610de46120a3600d5490565b6120ae906001613389565b6120b6612292565b6120c190600a6134be565b6002546120ce9190613389565b8591908561230e565b6107c6838383600161262f565b5f610de46120f0612292565b6120fb90600a6134be565b6002546121089190613389565b600d546120ce906001613389565b60026005540361213957604051633ee5aeb560e01b815260040160405180910390fd5b6002600555565b5f808080612157866001600160a01b038716612701565b909450925050505b9250929050565b5f6114d2846001600160a01b03851684612739565b610b7781612755565b5f61218f8484612005565b90505f198110156121cf57818110156121c157828183604051637dc7a0d960e11b815260040161078793929190613330565b6121cf84848484035f61262f565b50505050565b6001600160a01b0383166121fe575f604051634b637e8f60e11b81526004016107879190612fb3565b6001600160a01b038216612227575f60405163ec442f0560e01b81526004016107879190612fb3565b6107c683838361279e565b5f610866826128b1565b5f80808061215786866128bb565b5f610de4836001600160a01b0384166128e4565b6001600160a01b038216612287575f60405163ec442f0560e01b81526004016107879190612fb3565b610bf15f838361279e565b5f5f61229c611087565b6001600160a01b031663313ce5676040518163ffffffff1660e01b8152600401602060405180830381865afa1580156122d7573d5f5f3e3d5ffd5b505050506040513d601f19601f820116820180604052508101906122fb91906134f9565b9050612308816012613514565b91505090565b5f61233b61231b83612900565b801561233657505f84806123315761233161352d565b868809115b151590565b61234686868661292c565b61205f9190613389565b6001600160a01b038216612379575f604051634b637e8f60e11b81526004016107879190612fb3565b610bf1825f8361279e565b5f5b8151811015610bf1576123bc8282815181106123a4576123a46132ae565b6020026020010151600b6129dc90919063ffffffff16565b6123f4578181815181106123d2576123d26132ae565b602002602001015160405163751dff9760e11b81526004016107879190612fb3565b600101612386565b6017545f906301000000900461ffff16810361241957505f919050565b6017545f90612436906301000000900461ffff168461271061292c565b9050610de460095f9054906101000a90046001600160a01b03166001600160a01b0316634ff0876a6040518163ffffffff1660e01b8152600401602060405180830381865afa15801561248b573d5f5f3e3d5ffd5b505050506040513d601f19601f820116820180604052508101906124af9190613541565b829063ffffffff908116906301e133809061292c16565b6017545f90610100900461ffff1681036124e157505f919050565b5f6125256124f0846001613389565b6124f8612292565b61250390600a6134be565b6002546125109190613389565b5f61251d6012600a6134be565b92919061230e565b6017549091505f90819061253b9060ff166129f0565b915091508183101561255157505f949350505050565b6017545f9061256a90610100900461ffff16858461292c565b9050612579818761271061292c565b9695505050505050565b60605f610de483612ada565b5f612598825490565b90505f5b818110156125e157826001015f845f0183815481106125bd576125bd6132ae565b905f5260205f20015481526020019081526020015f205f905580600101905061259c565b50505f9055565b5f6125f38383612b33565b61262857508154600181810184555f848152602080822090930184905584548482528286019093526040902091909155610866565b505f610866565b6001600160a01b038416612658575f60405163e602df0560e01b81526004016107879190612fb3565b6001600160a01b038316612681575f604051634a1406b160e11b81526004016107879190612fb3565b6001600160a01b038085165f90815260016020908152604080832093871683529290522082905580156121cf57826001600160a01b0316846001600160a01b03167f8c5be1e5ebec7d5bd14f71427d1e84f3dd0314c0f7b2291e5b200ac8c7c3b925846040516126f391815260200190565b60405180910390a350505050565b5f81815260028301602052604081205481908061272e576127228585612b4a565b92505f915061215f9050565b60019250905061215f565b5f82815260028401602052604081208290556114d28484612b55565b5f61275f826128b1565b90505f5b8181101561279457600283015f61277a8584612b60565b815260208101919091526040015f90812055600101612763565b50610bf182612079565b6001600160a01b0383166127c8578060025f8282546127bd9190613389565b909155506128259050565b6001600160a01b0383165f90815260208190526040902054818110156128075783818360405163391434e360e21b815260040161078793929190613330565b6001600160a01b0384165f9081526020819052604090209082900390555b6001600160a01b0382166128415760028054829003905561285f565b6001600160a01b0382165f9081526020819052604090208054820190555b816001600160a01b0316836001600160a01b03167fddf252ad1be2c89b69c2b068fc378daa952ba7f163c4a11628f55a4df523b3ef836040516128a491815260200190565b60405180910390a3505050565b5f61086682612b6b565b5f80806128c88585612b60565b5f81815260029690960160205260409095205494959350505050565b5f8181526002830160205260408120819055610de48383612b74565b5f600282600381111561291557612915613090565b61291f919061355c565b60ff166001149050919050565b5f5f5f6129398686612b7f565b91509150815f0361295d578381816129535761295361352d565b0492505050610de4565b818411612974576129746003851502601118612b9b565b5f848688095f868103871696879004966002600389028118808a02820302808a02820302808a02820302808a02820302808a02820302808a02909103029181900381900460010185841190960395909502919093039390930492909217029150509392505050565b5f610de4836001600160a01b038416612b33565b5f80806129fd6012610e1d565b90505f846004811115612a1257612a12613090565b03612a2257809250829150612ad4565b6003846004811115612a3657612a36613090565b03612a48576018549250829150612ad4565b6001846004811115612a5c57612a5c613090565b03612a7457612a6a81612bac565b9250809150612ad4565b6002846004811115612a8857612a88613090565b03612aa057612a9681612bac565b9250829150612ad4565b6004846004811115612ab457612ab4613090565b03612ad457601854612ace90612ac983612bac565b612cd2565b92508291505b50915091565b6060815f01805480602002602001604051908101604052809291908181526020018280548015612b2757602002820191905f5260205f20905b815481526020019060010190808311612b13575b50505050509050919050565b5f9081526001919091016020526040902054151590565b5f610de48383612ce1565b5f610de483836125e8565b5f610de48383612cec565b5f610866825490565b5f610de48383612d12565b5f805f1983850993909202808410938190039390930393915050565b634e487b715f52806020526024601cfd5b5f5f60085f9054906101000a90046001600160a01b03166001600160a01b031663f3cc69936040518163ffffffff1660e01b8152600401602060405180830381865afa158015612bfe573d5f5f3e3d5ffd5b505050506040513d601f19601f82011682018060405250810190612c229190613589565b61ffff1690505f612cb760095f9054906101000a90046001600160a01b03166001600160a01b0316634ff0876a6040518163ffffffff1660e01b8152600401602060405180830381865afa158015612c7c573d5f5f3e3d5ffd5b505050506040513d601f19601f82011682018060405250810190612ca09190613541565b839063ffffffff908116906301e133809061292c16565b90506114d2612cc882612710613389565b859061271061292c565b5f828218828411028218610de4565b5f610de48383612b33565b5f825f018281548110612d0157612d016132ae565b905f5260205f200154905092915050565b5f8181526001830160205260408120548015612dec575f612d346001836133c8565b85549091505f90612d47906001906133c8565b9050808214612da6575f865f018281548110612d6557612d656132ae565b905f5260205f200154905080875f018481548110612d8557612d856132ae565b5f918252602080832090910192909255918252600188019052604090208390555b8554869080612db757612db76135a4565b600190038181905f5260205f20015f90559055856001015f8681526020019081526020015f205f905560019350505050610866565b5f915050610866565b5f5f60208385031215612e06575f5ffd5b82356001600160401b03811115612e1b575f5ffd5b8301601f81018513612e2b575f5ffd5b80356001600160401b03811115612e40575f5ffd5b8560208260051b8401011115612e54575f5ffd5b6020919091019590945092505050565b602081525f82518060208401528060208501604085015e5f604082850101526040601f19601f83011684010191505092915050565b5f60208284031215612ea9575f5ffd5b5035919050565b80356001600160a01b0381168114612ec6575f5ffd5b919050565b5f5f60408385031215612edc575f5ffd5b612ee583612eb0565b946020939093013593505050565b5f60208284031215612f03575f5ffd5b610de482612eb0565b5f5f60408385031215612f1d575f5ffd5b50508035926020909101359150565b5f5f83601f840112612f3c575f5ffd5b5081356001600160401b03811115612f52575f5ffd5b6020830191508360208260061b850101111561215f575f5ffd5b5f5f5f60408486031215612f7e575f5ffd5b83356001600160401b03811115612f93575f5ffd5b612f9f86828701612f2c565b909790965060209590950135949350505050565b6001600160a01b0391909116815260200190565b5f5f5f60608486031215612fd9575f5ffd5b612fe284612eb0565b9250612ff060208501612eb0565b929592945050506040919091013590565b60ff81168114610b77575f5ffd5b61ffff81168114610b77575f5ffd5b5f5f5f60608486031215613030575f5ffd5b833561303b81613001565b9250602084013561304b8161300f565b9150604084013561305b8161300f565b809150509250925092565b5f5f60408385031215613077575f5ffd5b8235915061308760208401612eb0565b90509250929050565b634e487b7160e01b5f52602160045260245ffd5b60808101600586106130c457634e487b7160e01b5f52602160045260245ffd5b94815261ffff93841660208201529190921660408201526060015290565b5f5f5f606084860312156130f4575f5ffd5b833592506020840135915060408401356004811061305b575f5ffd5b5f5f60208385031215613121575f5ffd5b82356001600160401b03811115613136575f5ffd5b61314285828601612f2c565b90969095509350505050565b5f5f5f60608486031215613160575f5ffd5b8335925061317060208501612eb0565b915061317e60408501612eb0565b90509250925092565b5f8151808452602084019350602083015f5b828110156131c05781516001600160a01b0316865260209586019590910190600101613199565b5093949350505050565b604081525f6131dc6040830185613187565b82810360208401528084518083526020830191506020860192505f5b8181101561321c57835163ffffffff168352602093840193909201916001016131f8565b50909695505050505050565b604081525f61323a6040830185613187565b82810360208401528084518083526020830191506020860192505f5b8181101561321c578351835260209384019390920191600101613256565b5f5f60408385031215613285575f5ffd5b61328e83612eb0565b915061308760208401612eb0565b602081525f610de46020830184613187565b634e487b7160e01b5f52603260045260245ffd5b5f602082840312156132d2575f5ffd5b81518015158114610de4575f5ffd5b600181811c908216806132f557607f821691505b60208210810361331357634e487b7160e01b5f52602260045260245ffd5b50919050565b5f60208284031215613329575f5ffd5b5051919050565b6001600160a01b039390931683526020830191909152604082015260600190565b6001600160a01b039384168152919092166020820152604081019190915260600190565b634e487b7160e01b5f52601160045260245ffd5b8082018082111561086657610866613375565b63ffffffff81168114610b77575f5ffd5b5f602082840312156133bd575f5ffd5b8135610de48161339c565b8181038181111561086657610866613375565b6001815b6001841115613416578085048111156133fa576133fa613375565b600184161561340857908102905b60019390931c9280026133df565b935093915050565b5f8261342c57506001610866565b8161343857505f610866565b816001811461344e576002811461345857613474565b6001915050610866565b60ff84111561346957613469613375565b50506001821b610866565b5060208310610133831016604e8410600b8410161715613497575081810a610866565b6134a35f1984846133db565b805f19048211156134b6576134b6613375565b029392505050565b5f610de460ff84168361341e565b634e487b7160e01b5f52604160045260245ffd5b6001600160a01b03929092168252602082015260400190565b5f60208284031215613509575f5ffd5b8151610de481613001565b60ff828116828216039081111561086657610866613375565b634e487b7160e01b5f52601260045260245ffd5b5f60208284031215613551575f5ffd5b8151610de48161339c565b5f60ff83168061357a57634e487b7160e01b5f52601260045260245ffd5b8060ff84160691505092915050565b5f60208284031215613599575f5ffd5b8151610de48161300f565b634e487b7160e01b5f52603160045260245ffdfea2646970667358221220a2f26c002dcc195b8d63c90b57df9a0bdaa48420e8736da285eada05eb0be0cf64736f6c634300081c0033a264697066735822122049344361b6b0160d94eabd98fb2d1e31fd9d63676b1046c4707dfef149102f5a64736f6c634300081c0033",
  "linkReferences": {},
  "deployedLinkReferences": {}
}